{
  "_format": "hh-sol-artifact-1",
  "contractName": "MEVShield",
  "sourceName": "contracts/MEVShield.sol",
  "abi": [
    {
      "inputs": [
        {
          "internalType": "address",
          "name": "_aiOracle",
          "type": "address"
        }
      ],
      "stateMutability": "nonpayable",
      "type": "constructor"
    },
    {
      "inputs": [
        {
          "internalType": "address",
          "name": "owner",
          "type": "address"
        }
      ],
      "name": "OwnableInvalidOwner",
      "type": "error"
    },
    {
      "inputs": [
        {
          "internalType": "address",
          "name": "account",
          "type": "address"
        }
      ],
      "name": "OwnableUnauthorizedAccount",
      "type": "error"
    },
    {
      "inputs": [],
      "name": "ReentrancyGuardReentrantCall",
      "type": "error"
    },
    {
      "anonymous": false,
      "inputs": [
        {
          "indexed": true,
          "internalType": "address",
          "name": "previousOwner",
          "type": "address"
        },
        {
          "indexed": true,
          "internalType": "address",
          "name": "newOwner",
          "type": "address"
        }
      ],
      "name": "OwnershipTransferred",
      "type": "event"
    },
    {
      "anonymous": false,
      "inputs": [
        {
          "indexed": true,
          "internalType": "address",
          "name": "user",
          "type": "address"
        },
        {
          "indexed": true,
          "internalType": "bytes32",
          "name": "txHash",
          "type": "bytes32"
        },
        {
          "indexed": false,
          "internalType": "enum MEVShield.ProtectionStrategy",
          "name": "strategy",
          "type": "uint8"
        },
        {
          "indexed": false,
          "internalType": "uint256",
          "name": "adjustment",
          "type": "uint256"
        },
        {
          "indexed": false,
          "internalType": "uint256",
          "name": "timestamp",
          "type": "uint256"
        }
      ],
      "name": "ProtectionApplied",
      "type": "event"
    },
    {
      "anonymous": false,
      "inputs": [
        {
          "indexed": true,
          "internalType": "address",
          "name": "user",
          "type": "address"
        },
        {
          "indexed": true,
          "internalType": "bytes32",
          "name": "txHash",
          "type": "bytes32"
        },
        {
          "indexed": false,
          "internalType": "uint8",
          "name": "threatScore",
          "type": "uint8"
        },
        {
          "indexed": false,
          "internalType": "uint256",
          "name": "timestamp",
          "type": "uint256"
        }
      ],
      "name": "ThreatDetected",
      "type": "event"
    },
    {
      "anonymous": false,
      "inputs": [
        {
          "indexed": true,
          "internalType": "address",
          "name": "user",
          "type": "address"
        },
        {
          "indexed": false,
          "internalType": "bool",
          "name": "autoProtect",
          "type": "bool"
        },
        {
          "indexed": false,
          "internalType": "enum MEVShield.ProtectionStrategy",
          "name": "strategy",
          "type": "uint8"
        },
        {
          "indexed": false,
          "internalType": "uint8",
          "name": "tolerance",
          "type": "uint8"
        }
      ],
      "name": "UserSettingsUpdated",
      "type": "event"
    },
    {
      "inputs": [],
      "name": "aiOracle",
      "outputs": [
        {
          "internalType": "address",
          "name": "",
          "type": "address"
        }
      ],
      "stateMutability": "view",
      "type": "function"
    },
    {
      "inputs": [
        {
          "internalType": "address",
          "name": "",
          "type": "address"
        }
      ],
      "name": "approvedTokens",
      "outputs": [
        {
          "internalType": "bool",
          "name": "",
          "type": "bool"
        }
      ],
      "stateMutability": "view",
      "type": "function"
    },
    {
      "inputs": [
        {
          "internalType": "address",
          "name": "fromToken",
          "type": "address"
        },
        {
          "internalType": "address",
          "name": "toToken",
          "type": "address"
        },
        {
          "internalType": "uint256",
          "name": "amountIn",
          "type": "uint256"
        },
        {
          "internalType": "uint256",
          "name": "minAmountOut",
          "type": "uint256"
        },
        {
          "internalType": "bytes32",
          "name": "txHash",
          "type": "bytes32"
        }
      ],
      "name": "executeProtectedSwap",
      "outputs": [
        {
          "internalType": "bool",
          "name": "",
          "type": "bool"
        }
      ],
      "stateMutability": "nonpayable",
      "type": "function"
    },
    {
      "inputs": [
        {
          "internalType": "address",
          "name": "user",
          "type": "address"
        }
      ],
      "name": "getUserStats",
      "outputs": [
        {
          "internalType": "uint256",
          "name": "threatsBlocked",
          "type": "uint256"
        },
        {
          "internalType": "bool",
          "name": "isAutoProtect",
          "type": "bool"
        },
        {
          "internalType": "enum MEVShield.ProtectionStrategy",
          "name": "strategy",
          "type": "uint8"
        },
        {
          "internalType": "uint8",
          "name": "tolerance",
          "type": "uint8"
        }
      ],
      "stateMutability": "view",
      "type": "function"
    },
    {
      "inputs": [
        {
          "internalType": "bytes32",
          "name": "txHash",
          "type": "bytes32"
        }
      ],
      "name": "isTransactionAtRisk",
      "outputs": [
        {
          "internalType": "bool",
          "name": "",
          "type": "bool"
        },
        {
          "internalType": "uint8",
          "name": "",
          "type": "uint8"
        }
      ],
      "stateMutability": "view",
      "type": "function"
    },
    {
      "inputs": [],
      "name": "owner",
      "outputs": [
        {
          "internalType": "address",
          "name": "",
          "type": "address"
        }
      ],
      "stateMutability": "view",
      "type": "function"
    },
    {
      "inputs": [],
      "name": "renounceOwnership",
      "outputs": [],
      "stateMutability": "nonpayable",
      "type": "function"
    },
    {
      "inputs": [
        {
          "internalType": "bytes32",
          "name": "txHash",
          "type": "bytes32"
        },
        {
          "internalType": "uint8",
          "name": "threatScore",
          "type": "uint8"
        },
        {
          "internalType": "address",
          "name": "user",
          "type": "address"
        }
      ],
      "name": "reportThreat",
      "outputs": [],
      "stateMutability": "nonpayable",
      "type": "function"
    },
    {
      "inputs": [],
      "name": "riskThreshold",
      "outputs": [
        {
          "internalType": "uint8",
          "name": "",
          "type": "uint8"
        }
      ],
      "stateMutability": "view",
      "type": "function"
    },
    {
      "inputs": [
        {
          "internalType": "address",
          "name": "token",
          "type": "address"
        },
        {
          "internalType": "bool",
          "name": "approved",
          "type": "bool"
        }
      ],
      "name": "setTokenApproval",
      "outputs": [],
      "stateMutability": "nonpayable",
      "type": "function"
    },
    {
      "inputs": [],
      "name": "totalThreatsBlocked",
      "outputs": [
        {
          "internalType": "uint256",
          "name": "",
          "type": "uint256"
        }
      ],
      "stateMutability": "view",
      "type": "function"
    },
    {
      "inputs": [
        {
          "internalType": "bytes32",
          "name": "",
          "type": "bytes32"
        }
      ],
      "name": "transactionRiskScores",
      "outputs": [
        {
          "internalType": "uint8",
          "name": "",
          "type": "uint8"
        }
      ],
      "stateMutability": "view",
      "type": "function"
    },
    {
      "inputs": [
        {
          "internalType": "address",
          "name": "newOwner",
          "type": "address"
        }
      ],
      "name": "transferOwnership",
      "outputs": [],
      "stateMutability": "nonpayable",
      "type": "function"
    },
    {
      "inputs": [
        {
          "internalType": "address",
          "name": "newOracle",
          "type": "address"
        }
      ],
      "name": "updateAIOracle",
      "outputs": [],
      "stateMutability": "nonpayable",
      "type": "function"
    },
    {
      "inputs": [
        {
          "internalType": "uint8",
          "name": "newThreshold",
          "type": "uint8"
        }
      ],
      "name": "updateRiskThreshold",
      "outputs": [],
      "stateMutability": "nonpayable",
      "type": "function"
    },
    {
      "inputs": [
        {
          "internalType": "bool",
          "name": "autoProtect",
          "type": "bool"
        },
        {
          "internalType": "enum MEVShield.ProtectionStrategy",
          "name": "preferredStrategy",
          "type": "uint8"
        },
        {
          "internalType": "uint8",
          "name": "riskTolerance",
          "type": "uint8"
        }
      ],
      "name": "updateUserSettings",
      "outputs": [],
      "stateMutability": "nonpayable",
      "type": "function"
    },
    {
      "inputs": [
        {
          "internalType": "address",
          "name": "",
          "type": "address"
        }
      ],
      "name": "userSettings",
      "outputs": [
        {
          "internalType": "bool",
          "name": "autoProtect",
          "type": "bool"
        },
        {
          "internalType": "enum MEVShield.ProtectionStrategy",
          "name": "preferredStrategy",
          "type": "uint8"
        },
        {
          "internalType": "uint8",
          "name": "riskTolerance",
          "type": "uint8"
        }
      ],
      "stateMutability": "view",
      "type": "function"
    },
    {
      "inputs": [
        {
          "internalType": "address",
          "name": "",
          "type": "address"
        }
      ],
      "name": "userThreatsBlocked",
      "outputs": [
        {
          "internalType": "uint256",
          "name": "",
          "type": "uint256"
        }
      ],
      "stateMutability": "view",
      "type": "function"
    }
  ],
  "bytecode": "0x60806040526046600360146101000a81548160ff021916908360ff16021790555034801561002c57600080fd5b50604051611d7a380380611d7a833981810160405281019061004e919061029e565b33600073ffffffffffffffffffffffffffffffffffffffff168173ffffffffffffffffffffffffffffffffffffffff16036100c15760006040517f1e4fbdf70000000000000000000000000000000000000000000000000000000081526004016100b891906102da565b60405180910390fd5b6100d08161017760201b60201c565b506001808190555080600360006101000a81548173ffffffffffffffffffffffffffffffffffffffff021916908373ffffffffffffffffffffffffffffffffffffffff1602179055506001600760008073ffffffffffffffffffffffffffffffffffffffff1673ffffffffffffffffffffffffffffffffffffffff16815260200190815260200160002060006101000a81548160ff021916908315150217905550506102f5565b60008060009054906101000a900473ffffffffffffffffffffffffffffffffffffffff169050816000806101000a81548173ffffffffffffffffffffffffffffffffffffffff021916908373ffffffffffffffffffffffffffffffffffffffff1602179055508173ffffffffffffffffffffffffffffffffffffffff168173ffffffffffffffffffffffffffffffffffffffff167f8be0079c531659141344cd1fd0a4f28419497f9722a3daafe3b4186f6b6457e060405160405180910390a35050565b600080fd5b600073ffffffffffffffffffffffffffffffffffffffff82169050919050565b600061026b82610240565b9050919050565b61027b81610260565b811461028657600080fd5b50565b60008151905061029881610272565b92915050565b6000602082840312156102b4576102b361023b565b5b60006102c284828501610289565b91505092915050565b6102d481610260565b82525050565b60006020820190506102ef60008301846102cb565b92915050565b611a76806103046000396000f3fe608060405234801561001057600080fd5b50600436106101165760003560e01c8063715018a6116100a2578063b43e6cb411610071578063b43e6cb4146102e4578063b470aad714610302578063e751bce214610333578063f2fde38b14610363578063f34d99181461037f57610116565b8063715018a61461026e5780637ef8513a146102785780638da5cb5b146102aa578063a49d80e3146102c857610116565b8063559eed0a116100e9578063559eed0a146101a457806359b59934146101d45780635e37eb93146101f05780636c3f0754146102205780636d1ea3fa1461023e57610116565b806314d91c841461011b57806331b221cd146101375780633f2df4ad146101555780634e43603a14610171575b600080fd5b610135600480360381019061013091906111c8565b61039b565b005b61013f6103fe565b60405161014c9190611217565b60405180910390f35b61016f600480360381019061016a9190611232565b610424565b005b61018b60048036038101906101869190611232565b610470565b60405161019b949392919061131a565b60405180910390f35b6101be60048036038101906101b991906113c1565b610596565b6040516101cb919061143c565b60405180910390f35b6101ee60048036038101906101e991906114a8565b6107d2565b005b61020a60048036038101906102059190611232565b61090e565b60405161021791906114fb565b60405180910390f35b610228610926565b60405161023591906114fb565b60405180910390f35b61025860048036038101906102539190611232565b61092c565b604051610265919061143c565b60405180910390f35b61027661094c565b005b610292600480360381019061028d9190611232565b610960565b6040516102a193929190611516565b60405180910390f35b6102b26109b1565b6040516102bf9190611217565b60405180910390f35b6102e260048036038101906102dd919061154d565b6109da565b005b6102ec610a47565b6040516102f9919061157a565b60405180910390f35b61031c60048036038101906103179190611595565b610a5a565b60405161032a9291906115c2565b60405180910390f35b61034d60048036038101906103489190611595565b610aa6565b60405161035a919061157a565b60405180910390f35b61037d60048036038101906103789190611232565b610ac6565b005b610399600480360381019061039491906115eb565b610b4c565b005b6103a3610d2e565b80600760008473ffffffffffffffffffffffffffffffffffffffff1673ffffffffffffffffffffffffffffffffffffffff16815260200190815260200160002060006101000a81548160ff0219169083151502179055505050565b600360009054906101000a900473ffffffffffffffffffffffffffffffffffffffff1681565b61042c610d2e565b80600360006101000a81548173ffffffffffffffffffffffffffffffffffffffff021916908373ffffffffffffffffffffffffffffffffffffffff16021790555050565b6000806000806000600460008773ffffffffffffffffffffffffffffffffffffffff1673ffffffffffffffffffffffffffffffffffffffff1681526020019081526020016000206040518060600160405290816000820160009054906101000a900460ff161515151581526020016000820160019054906101000a900460ff16600381111561050257610501611287565b5b600381111561051457610513611287565b5b81526020016000820160029054906101000a900460ff1660ff1660ff16815250509050600660008773ffffffffffffffffffffffffffffffffffffffff1673ffffffffffffffffffffffffffffffffffffffff168152602001908152602001600020548160000151826020015183604001519450945094509450509193509193565b60006105a0610db5565b600760008773ffffffffffffffffffffffffffffffffffffffff1673ffffffffffffffffffffffffffffffffffffffff16815260200190815260200160002060009054906101000a900460ff1661062c576040517f08c379a00000000000000000000000000000000000000000000000000000000081526004016106239061169b565b60405180910390fd5b600061063783610dfb565b9050806005600085815260200190815260200160002060006101000a81548160ff021916908360ff160217905550600360149054906101000a900460ff1660ff168160ff16106107bb5760026000815480929190610694906116ea565b9190505550600660003373ffffffffffffffffffffffffffffffffffffffff1673ffffffffffffffffffffffffffffffffffffffff16815260200190815260200160002060008154809291906106e9906116ea565b919050555060006106fa3383610ea7565b90506000610709828785610feb565b9050843373ffffffffffffffffffffffffffffffffffffffff167fb8e6265dca57b30c26ad4103f67e69a3701cc63898688b48d19a89da42fa50058542604051610754929190611732565b60405180910390a3843373ffffffffffffffffffffffffffffffffffffffff167f685a6ef5c3433105a6ec5ff6a4c50d04d027de82f70af6d4d294efd9e991d7728484426040516107a79392919061175b565b60405180910390a3600193505050506107c1565b60009150505b6107c9611058565b95945050505050565b604051806060016040528084151581526020018360038111156107f8576107f7611287565b5b81526020018260ff16815250600460003373ffffffffffffffffffffffffffffffffffffffff1673ffffffffffffffffffffffffffffffffffffffff16815260200190815260200160002060008201518160000160006101000a81548160ff02191690831515021790555060208201518160000160016101000a81548160ff0219169083600381111561088e5761088d611287565b5b021790555060408201518160000160026101000a81548160ff021916908360ff1602179055509050503373ffffffffffffffffffffffffffffffffffffffff167f77e3695659b383855bce98ff076b9de18d2a188dd4a7fa1f59b830b3545e2fae84848460405161090193929190611516565b60405180910390a2505050565b60066020528060005260406000206000915090505481565b60025481565b60076020528060005260406000206000915054906101000a900460ff1681565b610954610d2e565b61095e6000611061565b565b60046020528060005260406000206000915090508060000160009054906101000a900460ff16908060000160019054906101000a900460ff16908060000160029054906101000a900460ff16905083565b60008060009054906101000a900473ffffffffffffffffffffffffffffffffffffffff16905090565b6109e2610d2e565b60648160ff161115610a29576040517f08c379a0000000000000000000000000000000000000000000000000000000008152600401610a20906117de565b60405180910390fd5b80600360146101000a81548160ff021916908360ff16021790555050565b600360149054906101000a900460ff1681565b60008060006005600085815260200190815260200160002060009054906101000a900460ff169050600360149054906101000a900460ff1660ff168160ff161015819250925050915091565b60056020528060005260406000206000915054906101000a900460ff1681565b610ace610d2e565b600073ffffffffffffffffffffffffffffffffffffffff168173ffffffffffffffffffffffffffffffffffffffff1603610b405760006040517f1e4fbdf7000000000000000000000000000000000000000000000000000000008152600401610b379190611217565b60405180910390fd5b610b4981611061565b50565b600360009054906101000a900473ffffffffffffffffffffffffffffffffffffffff1673ffffffffffffffffffffffffffffffffffffffff163373ffffffffffffffffffffffffffffffffffffffff1614610bdc576040517f08c379a0000000000000000000000000000000000000000000000000000000008152600401610bd39061184a565b60405180910390fd5b60008260ff1611610c22576040517f08c379a0000000000000000000000000000000000000000000000000000000008152600401610c19906118b6565b60405180910390fd5b816005600085815260200190815260200160002060006101000a81548160ff021916908360ff160217905550600360149054906101000a900460ff1660ff168260ff1610610d295760026000815480929190610c7d906116ea565b9190505550600660008273ffffffffffffffffffffffffffffffffffffffff1673ffffffffffffffffffffffffffffffffffffffff1681526020019081526020016000206000815480929190610cd2906116ea565b9190505550828173ffffffffffffffffffffffffffffffffffffffff167fb8e6265dca57b30c26ad4103f67e69a3701cc63898688b48d19a89da42fa50058442604051610d20929190611732565b60405180910390a35b505050565b610d36611125565b73ffffffffffffffffffffffffffffffffffffffff16610d546109b1565b73ffffffffffffffffffffffffffffffffffffffff1614610db357610d77611125565b6040517f118cdaa7000000000000000000000000000000000000000000000000000000008152600401610daa9190611217565b60405180910390fd5b565b600260015403610df1576040517f3ee5aeb500000000000000000000000000000000000000000000000000000000815260040160405180910390fd5b6002600181905550565b60008060648360001c610e0e9190611905565b9050600a603c42610e1f9190611905565b1015610e395760468111610e34576046610e36565b805b90505b608060f81b83600060208110610e5257610e51611936565b5b1a60f81b7effffffffffffffffffffffffffffffffffffffffffffffffffffffffffffff19161115610e8e57601481610e8b9190611965565b90505b60648111610e9c5780610e9f565b60645b915050919050565b600080600460008573ffffffffffffffffffffffffffffffffffffffff1673ffffffffffffffffffffffffffffffffffffffff1681526020019081526020016000206040518060600160405290816000820160009054906101000a900460ff161515151581526020016000820160019054906101000a900460ff166003811115610f3457610f33611287565b5b6003811115610f4657610f45611287565b5b81526020016000820160029054906101000a900460ff1660ff1660ff1681525050905080600001518015610fa3575060006003811115610f8957610f88611287565b5b81602001516003811115610fa057610f9f611287565b5b14155b15610fb5578060200151915050610fe5565b605a8360ff1610610fca576002915050610fe5565b60508360ff1610610fdf576003915050610fe5565b60019150505b92915050565b60006001600381111561100157611000611287565b5b84600381111561101457611013611287565b5b0361104d5760006103e88360ff168561102d9190611999565b61103791906119db565b905080846110459190611a0c565b915050611051565b8290505b9392505050565b60018081905550565b60008060009054906101000a900473ffffffffffffffffffffffffffffffffffffffff169050816000806101000a81548173ffffffffffffffffffffffffffffffffffffffff021916908373ffffffffffffffffffffffffffffffffffffffff1602179055508173ffffffffffffffffffffffffffffffffffffffff168173ffffffffffffffffffffffffffffffffffffffff167f8be0079c531659141344cd1fd0a4f28419497f9722a3daafe3b4186f6b6457e060405160405180910390a35050565b600033905090565b600080fd5b600073ffffffffffffffffffffffffffffffffffffffff82169050919050565b600061115d82611132565b9050919050565b61116d81611152565b811461117857600080fd5b50565b60008135905061118a81611164565b92915050565b60008115159050919050565b6111a581611190565b81146111b057600080fd5b50565b6000813590506111c28161119c565b92915050565b600080604083850312156111df576111de61112d565b5b60006111ed8582860161117b565b92505060206111fe858286016111b3565b9150509250929050565b61121181611152565b82525050565b600060208201905061122c6000830184611208565b92915050565b6000602082840312156112485761124761112d565b5b60006112568482850161117b565b91505092915050565b6000819050919050565b6112728161125f565b82525050565b61128181611190565b82525050565b7f4e487b7100000000000000000000000000000000000000000000000000000000600052602160045260246000fd5b600481106112c7576112c6611287565b5b50565b60008190506112d8826112b6565b919050565b60006112e8826112ca565b9050919050565b6112f8816112dd565b82525050565b600060ff82169050919050565b611314816112fe565b82525050565b600060808201905061132f6000830187611269565b61133c6020830186611278565b61134960408301856112ef565b611356606083018461130b565b95945050505050565b6113688161125f565b811461137357600080fd5b50565b6000813590506113858161135f565b92915050565b6000819050919050565b61139e8161138b565b81146113a957600080fd5b50565b6000813590506113bb81611395565b92915050565b600080600080600060a086880312156113dd576113dc61112d565b5b60006113eb8882890161117b565b95505060206113fc8882890161117b565b945050604061140d88828901611376565b935050606061141e88828901611376565b925050608061142f888289016113ac565b9150509295509295909350565b60006020820190506114516000830184611278565b92915050565b6004811061146457600080fd5b50565b60008135905061147681611457565b92915050565b611485816112fe565b811461149057600080fd5b50565b6000813590506114a28161147c565b92915050565b6000806000606084860312156114c1576114c061112d565b5b60006114cf868287016111b3565b93505060206114e086828701611467565b92505060406114f186828701611493565b9150509250925092565b60006020820190506115106000830184611269565b92915050565b600060608201905061152b6000830186611278565b61153860208301856112ef565b611545604083018461130b565b949350505050565b6000602082840312156115635761156261112d565b5b600061157184828501611493565b91505092915050565b600060208201905061158f600083018461130b565b92915050565b6000602082840312156115ab576115aa61112d565b5b60006115b9848285016113ac565b91505092915050565b60006040820190506115d76000830185611278565b6115e4602083018461130b565b9392505050565b6000806000606084860312156116045761160361112d565b5b6000611612868287016113ac565b935050602061162386828701611493565b92505060406116348682870161117b565b9150509250925092565b600082825260208201905092915050565b7f546f6b656e206e6f7420617070726f7665640000000000000000000000000000600082015250565b600061168560128361163e565b91506116908261164f565b602082019050919050565b600060208201905081810360008301526116b481611678565b9050919050565b7f4e487b7100000000000000000000000000000000000000000000000000000000600052601160045260246000fd5b60006116f58261125f565b91507fffffffffffffffffffffffffffffffffffffffffffffffffffffffffffffffff8203611727576117266116bb565b5b600182019050919050565b6000604082019050611747600083018561130b565b6117546020830184611269565b9392505050565b600060608201905061177060008301866112ef565b61177d6020830185611269565b61178a6040830184611269565b949350505050565b7f5468726573686f6c6420746f6f20686967680000000000000000000000000000600082015250565b60006117c860128361163e565b91506117d382611792565b602082019050919050565b600060208201905081810360008301526117f7816117bb565b9050919050565b7f43616c6c6572206973206e6f7420746865204149204f7261636c650000000000600082015250565b6000611834601b8361163e565b915061183f826117fe565b602082019050919050565b6000602082019050818103600083015261186381611827565b9050919050565b7f496e76616c69642073636f726500000000000000000000000000000000000000600082015250565b60006118a0600d8361163e565b91506118ab8261186a565b602082019050919050565b600060208201905081810360008301526118cf81611893565b9050919050565b7f4e487b7100000000000000000000000000000000000000000000000000000000600052601260045260246000fd5b60006119108261125f565b915061191b8361125f565b92508261192b5761192a6118d6565b5b828206905092915050565b7f4e487b7100000000000000000000000000000000000000000000000000000000600052603260045260246000fd5b60006119708261125f565b915061197b8361125f565b9250828201905080821115611993576119926116bb565b5b92915050565b60006119a48261125f565b91506119af8361125f565b92508282026119bd8161125f565b915082820484148315176119d4576119d36116bb565b5b5092915050565b60006119e68261125f565b91506119f18361125f565b925082611a0157611a006118d6565b5b828204905092915050565b6000611a178261125f565b9150611a228361125f565b9250828203905081811115611a3a57611a396116bb565b5b9291505056fea2646970667358221220874b58f145245ea6ab7f7cb275190d520ef5cdec21625de700c0f6c96421207364736f6c634300081c0033",
  "linkReferences": {},
  "deployedLinkReferences": {}
}