{
  "_format": "hh-sol-artifact-1",
  "contractName": "CardLibrary",
  "sourceName": "contracts/CardLibrary.sol",
  "abi": [
    {
      "inputs": [],
      "stateMutability": "nonpayable",
      "type": "constructor"
    },
    {
      "anonymous": false,
      "inputs": [
        {
          "indexed": true,
          "internalType": "address",
          "name": "previousOwner",
          "type": "address"
        },
        {
          "indexed": true,
          "internalType": "address",
          "name": "newOwner",
          "type": "address"
        }
      ],
      "name": "OwnershipTransferred",
      "type": "event"
    },
    {
      "inputs": [
        {
          "internalType": "string",
          "name": "name",
          "type": "string"
        },
        {
          "internalType": "enum CardLibrary.Rarity",
          "name": "rarity",
          "type": "uint8"
        },
        {
          "internalType": "uint256",
          "name": "probability",
          "type": "uint256"
        },
        {
          "internalType": "uint256",
          "name": "rewardMultiplier",
          "type": "uint256"
        }
      ],
      "name": "addCard",
      "outputs": [],
      "stateMutability": "nonpayable",
      "type": "function"
    },
    {
      "inputs": [
        {
          "internalType": "uint256",
          "name": "",
          "type": "uint256"
        }
      ],
      "name": "cards",
      "outputs": [
        {
          "internalType": "uint256",
          "name": "id",
          "type": "uint256"
        },
        {
          "internalType": "string",
          "name": "name",
          "type": "string"
        },
        {
          "internalType": "enum CardLibrary.Rarity",
          "name": "rarity",
          "type": "uint8"
        },
        {
          "internalType": "uint256",
          "name": "probability",
          "type": "uint256"
        },
        {
          "internalType": "uint256",
          "name": "rewardMultiplier",
          "type": "uint256"
        }
      ],
      "stateMutability": "view",
      "type": "function"
    },
    {
      "inputs": [
        {
          "internalType": "uint256",
          "name": "id",
          "type": "uint256"
        }
      ],
      "name": "getCardById",
      "outputs": [
        {
          "components": [
            {
              "internalType": "uint256",
              "name": "id",
              "type": "uint256"
            },
            {
              "internalType": "string",
              "name": "name",
              "type": "string"
            },
            {
              "internalType": "enum CardLibrary.Rarity",
              "name": "rarity",
              "type": "uint8"
            },
            {
              "internalType": "uint256",
              "name": "probability",
              "type": "uint256"
            },
            {
              "internalType": "uint256",
              "name": "rewardMultiplier",
              "type": "uint256"
            }
          ],
          "internalType": "struct CardLibrary.Card",
          "name": "",
          "type": "tuple"
        }
      ],
      "stateMutability": "view",
      "type": "function"
    },
    {
      "inputs": [],
      "name": "getCardCount",
      "outputs": [
        {
          "internalType": "uint256",
          "name": "",
          "type": "uint256"
        }
      ],
      "stateMutability": "view",
      "type": "function"
    },
    {
      "inputs": [
        {
          "internalType": "uint256",
          "name": "randomValue",
          "type": "uint256"
        }
      ],
      "name": "getRandomCard",
      "outputs": [
        {
          "components": [
            {
              "internalType": "uint256",
              "name": "id",
              "type": "uint256"
            },
            {
              "internalType": "string",
              "name": "name",
              "type": "string"
            },
            {
              "internalType": "enum CardLibrary.Rarity",
              "name": "rarity",
              "type": "uint8"
            },
            {
              "internalType": "uint256",
              "name": "probability",
              "type": "uint256"
            },
            {
              "internalType": "uint256",
              "name": "rewardMultiplier",
              "type": "uint256"
            }
          ],
          "internalType": "struct CardLibrary.Card",
          "name": "",
          "type": "tuple"
        }
      ],
      "stateMutability": "view",
      "type": "function"
    },
    {
      "inputs": [],
      "name": "owner",
      "outputs": [
        {
          "internalType": "address",
          "name": "",
          "type": "address"
        }
      ],
      "stateMutability": "view",
      "type": "function"
    },
    {
      "inputs": [],
      "name": "renounceOwnership",
      "outputs": [],
      "stateMutability": "nonpayable",
      "type": "function"
    },
    {
      "inputs": [],
      "name": "totalProbability",
      "outputs": [
        {
          "internalType": "uint256",
          "name": "",
          "type": "uint256"
        }
      ],
      "stateMutability": "view",
      "type": "function"
    },
    {
      "inputs": [
        {
          "internalType": "address",
          "name": "newOwner",
          "type": "address"
        }
      ],
      "name": "transferOwnership",
      "outputs": [],
      "stateMutability": "nonpayable",
      "type": "function"
    }
  ],
  "bytecode": "0x60806040523480156200001157600080fd5b506200001d33620000f9565b60408051808201909152600e81526d10dbdb5b5bdb8810dc9e5cdd185b60921b602082015262000054906000611770606e62000149565b604080518082019091526008815267526172652047656d60c01b602082015262000085906001610bb8609662000149565b60408051808201909152600a815269115c1a58c812995dd95b60b21b6020820152620000b890600261038460c862000149565b604080518082019091526012815271131959d95b99185c9e48105c9d1a599858dd60721b6020820152620000f3906003606461019062000149565b6200043f565b600080546001600160a01b038381166001600160a01b0319831681178455604051919092169283917f8be0079c531659141344cd1fd0a4f28419497f9722a3daafe3b4186f6b6457e09190a35050565b620001536200022f565b600180546040805160a0810182528281526020810188905291929190810186600381111562000186576200018662000290565b8152602080820187905260409091018590528254600181810185556000948552938290208351600590920201908155908201519192909190820190620001cd90826200034b565b50604082015160028201805460ff19166001836003811115620001f457620001f462000290565b021790555060608201518160030155608082015181600401555050826002600082825462000223919062000417565b90915550505050505050565b6000546001600160a01b031633146200028e5760405162461bcd60e51b815260206004820181905260248201527f4f776e61626c653a2063616c6c6572206973206e6f7420746865206f776e6572604482015260640160405180910390fd5b565b634e487b7160e01b600052602160045260246000fd5b634e487b7160e01b600052604160045260246000fd5b600181811c90821680620002d157607f821691505b602082108103620002f257634e487b7160e01b600052602260045260246000fd5b50919050565b601f8211156200034657600081815260208120601f850160051c81016020861015620003215750805b601f850160051c820191505b8181101562000342578281556001016200032d565b5050505b505050565b81516001600160401b03811115620003675762000367620002a6565b6200037f81620003788454620002bc565b84620002f8565b602080601f831160018114620003b757600084156200039e5750858301515b600019600386901b1c1916600185901b17855562000342565b600085815260208120601f198616915b82811015620003e857888601518255948401946001909101908401620003c7565b5085821015620004075787850151600019600388901b60f8161c191681555b5050505050600190811b01905550565b808201808211156200043957634e487b7160e01b600052601160045260246000fd5b92915050565b610cf6806200044f6000396000f3fe608060405234801561001057600080fd5b50600436106100935760003560e01c80638da5cb5b116100665780638da5cb5b146100d95780638dc10768146100f45780639077fe5214610118578063a3c6706814610138578063f2fde38b1461014b57600080fd5b806330b5dd491461009857806349c7f659146100ad578063715018a6146100c95780637d620130146100d1575b600080fd5b6100ab6100a63660046108cb565b61015e565b005b6100b660025481565b6040519081526020015b60405180910390f35b6100ab610238565b6001546100b6565b6000546040516001600160a01b0390911681526020016100c0565b61010761010236600461099c565b61024c565b6040516100c0959493929190610a33565b61012b61012636600461099c565b61031c565b6040516100c09190610a6e565b61012b61014636600461099c565b6104af565b6100ab610159366004610ac7565b61077e565b6101666107f7565b600180546040805160a08101825282815260208101889052919291908101866003811115610196576101966109fb565b81526020808201879052604090910185905282546001818101855560009485529382902083516005909202019081559082015191929091908201906101db9082610b80565b50604082015160028201805460ff191660018360038111156101ff576101ff6109fb565b021790555060608201518160030155608082015181600401555050826002600082825461022c9190610c56565b90915550505050505050565b6102406107f7565b61024a6000610851565b565b6001818154811061025c57600080fd5b6000918252602090912060059091020180546001820180549193509061028190610af7565b80601f01602080910402602001604051908101604052809291908181526020018280546102ad90610af7565b80156102fa5780601f106102cf576101008083540402835291602001916102fa565b820191906000526020600020905b8154815290600101906020018083116102dd57829003601f168201915b5050505060028301546003840154600490940154929360ff9091169290915085565b61034e6040805160a0810182526000808252606060208301529091820190815260200160008152602001600081525090565b600154821061039a5760405162461bcd60e51b815260206004820152601360248201527210d85c9908191bd95cc81b9bdd08195e1a5cdd606a1b60448201526064015b60405180910390fd5b600182815481106103ad576103ad610c6f565b90600052602060002090600502016040518060a0016040529081600082015481526020016001820180546103e090610af7565b80601f016020809104026020016040519081016040528092919081815260200182805461040c90610af7565b80156104595780601f1061042e57610100808354040283529160200191610459565b820191906000526020600020905b81548152906001019060200180831161043c57829003601f168201915b5050509183525050600282015460209091019060ff166003811115610480576104806109fb565b6003811115610491576104916109fb565b81526003820154602082015260049091015460409091015292915050565b6104e16040805160a0810182526000808252606060208301529091820190815260200160008152602001600081525090565b600080600254846104f29190610c85565b905060005b600154811015610665576001818154811061051457610514610c6f565b906000526020600020906005020160030154836105319190610c56565b925082821015610653576001818154811061054e5761054e610c6f565b90600052602060002090600502016040518060a00160405290816000820154815260200160018201805461058190610af7565b80601f01602080910402602001604051908101604052809291908181526020018280546105ad90610af7565b80156105fa5780601f106105cf576101008083540402835291602001916105fa565b820191906000526020600020905b8154815290600101906020018083116105dd57829003601f168201915b5050509183525050600282015460209091019060ff166003811115610621576106216109fb565b6003811115610632576106326109fb565b81526003820154602082015260049091015460409091015295945050505050565b8061065d81610ca7565b9150506104f7565b50600160008154811061067a5761067a610c6f565b90600052602060002090600502016040518060a0016040529081600082015481526020016001820180546106ad90610af7565b80601f01602080910402602001604051908101604052809291908181526020018280546106d990610af7565b80156107265780601f106106fb57610100808354040283529160200191610726565b820191906000526020600020905b81548152906001019060200180831161070957829003601f168201915b5050509183525050600282015460209091019060ff16600381111561074d5761074d6109fb565b600381111561075e5761075e6109fb565b815260038201546020820152600490910154604090910152949350505050565b6107866107f7565b6001600160a01b0381166107eb5760405162461bcd60e51b815260206004820152602660248201527f4f776e61626c653a206e6577206f776e657220697320746865207a65726f206160448201526564647265737360d01b6064820152608401610391565b6107f481610851565b50565b6000546001600160a01b0316331461024a5760405162461bcd60e51b815260206004820181905260248201527f4f776e61626c653a2063616c6c6572206973206e6f7420746865206f776e65726044820152606401610391565b600080546001600160a01b038381166001600160a01b0319831681178455604051919092169283917f8be0079c531659141344cd1fd0a4f28419497f9722a3daafe3b4186f6b6457e09190a35050565b634e487b7160e01b600052604160045260246000fd5b8035600481106108c657600080fd5b919050565b600080600080608085870312156108e157600080fd5b843567ffffffffffffffff808211156108f957600080fd5b818701915087601f83011261090d57600080fd5b81358181111561091f5761091f6108a1565b604051601f8201601f19908116603f01168101908382118183101715610947576109476108a1565b816040528281528a602084870101111561096057600080fd5b826020860160208301376000602084830101528098505050505050610987602086016108b7565b93969395505050506040820135916060013590565b6000602082840312156109ae57600080fd5b5035919050565b6000815180845260005b818110156109db576020818501810151868301820152016109bf565b506000602082860101526020601f19601f83011685010191505092915050565b634e487b7160e01b600052602160045260246000fd5b60048110610a2f57634e487b7160e01b600052602160045260246000fd5b9052565b85815260a060208201526000610a4c60a08301876109b5565b9050610a5b6040830186610a11565b6060820193909352608001529392505050565b60208152815160208201526000602083015160a06040840152610a9460c08401826109b5565b90506040840151610aa86060850182610a11565b5060608401516080840152608084015160a08401528091505092915050565b600060208284031215610ad957600080fd5b81356001600160a01b0381168114610af057600080fd5b9392505050565b600181811c90821680610b0b57607f821691505b602082108103610b2b57634e487b7160e01b600052602260045260246000fd5b50919050565b601f821115610b7b57600081815260208120601f850160051c81016020861015610b585750805b601f850160051c820191505b81811015610b7757828155600101610b64565b5050505b505050565b815167ffffffffffffffff811115610b9a57610b9a6108a1565b610bae81610ba88454610af7565b84610b31565b602080601f831160018114610be35760008415610bcb5750858301515b600019600386901b1c1916600185901b178555610b77565b600085815260208120601f198616915b82811015610c1257888601518255948401946001909101908401610bf3565b5085821015610c305787850151600019600388901b60f8161c191681555b5050505050600190811b01905550565b634e487b7160e01b600052601160045260246000fd5b80820180821115610c6957610c69610c40565b92915050565b634e487b7160e01b600052603260045260246000fd5b600082610ca257634e487b7160e01b600052601260045260246000fd5b500690565b600060018201610cb957610cb9610c40565b506001019056fea2646970667358221220de42426b713528fe4517a3d49e69139e4651840ebc39925a6795699b7f5bd7c664736f6c63430008110033",
  "linkReferences": {},
  "deployedLinkReferences": {}
}