{
  "_format": "hh-sol-artifact-1",
  "contractName": "TrisolarisCoin",
  "sourceName": "contracts/TrisolarisCoin.sol",
  "abi": [
    {
      "inputs": [],
      "stateMutability": "nonpayable",
      "type": "constructor"
    },
    {
      "anonymous": false,
      "inputs": [
        {
          "indexed": true,
          "internalType": "address",
          "name": "owner",
          "type": "address"
        },
        {
          "indexed": true,
          "internalType": "address",
          "name": "spender",
          "type": "address"
        },
        {
          "indexed": false,
          "internalType": "uint256",
          "name": "value",
          "type": "uint256"
        }
      ],
      "name": "Approval",
      "type": "event"
    },
    {
      "anonymous": false,
      "inputs": [
        {
          "indexed": true,
          "internalType": "address",
          "name": "previousOwner",
          "type": "address"
        },
        {
          "indexed": true,
          "internalType": "address",
          "name": "newOwner",
          "type": "address"
        }
      ],
      "name": "OwnershipTransferred",
      "type": "event"
    },
    {
      "anonymous": false,
      "inputs": [
        {
          "indexed": true,
          "internalType": "address",
          "name": "from",
          "type": "address"
        },
        {
          "indexed": true,
          "internalType": "address",
          "name": "to",
          "type": "address"
        },
        {
          "indexed": false,
          "internalType": "uint256",
          "name": "value",
          "type": "uint256"
        }
      ],
      "name": "Transfer",
      "type": "event"
    },
    {
      "inputs": [
        {
          "internalType": "address",
          "name": "owner",
          "type": "address"
        },
        {
          "internalType": "address",
          "name": "spender",
          "type": "address"
        }
      ],
      "name": "allowance",
      "outputs": [
        {
          "internalType": "uint256",
          "name": "",
          "type": "uint256"
        }
      ],
      "stateMutability": "view",
      "type": "function"
    },
    {
      "inputs": [
        {
          "internalType": "address",
          "name": "spender",
          "type": "address"
        },
        {
          "internalType": "uint256",
          "name": "amount",
          "type": "uint256"
        }
      ],
      "name": "approve",
      "outputs": [
        {
          "internalType": "bool",
          "name": "",
          "type": "bool"
        }
      ],
      "stateMutability": "nonpayable",
      "type": "function"
    },
    {
      "inputs": [
        {
          "internalType": "address",
          "name": "account",
          "type": "address"
        }
      ],
      "name": "balanceOf",
      "outputs": [
        {
          "internalType": "uint256",
          "name": "",
          "type": "uint256"
        }
      ],
      "stateMutability": "view",
      "type": "function"
    },
    {
      "inputs": [],
      "name": "buyTokens",
      "outputs": [],
      "stateMutability": "payable",
      "type": "function"
    },
    {
      "inputs": [],
      "name": "decimals",
      "outputs": [
        {
          "internalType": "uint8",
          "name": "",
          "type": "uint8"
        }
      ],
      "stateMutability": "view",
      "type": "function"
    },
    {
      "inputs": [
        {
          "internalType": "address",
          "name": "spender",
          "type": "address"
        },
        {
          "internalType": "uint256",
          "name": "subtractedValue",
          "type": "uint256"
        }
      ],
      "name": "decreaseAllowance",
      "outputs": [
        {
          "internalType": "bool",
          "name": "",
          "type": "bool"
        }
      ],
      "stateMutability": "nonpayable",
      "type": "function"
    },
    {
      "inputs": [
        {
          "internalType": "address",
          "name": "spender",
          "type": "address"
        },
        {
          "internalType": "uint256",
          "name": "addedValue",
          "type": "uint256"
        }
      ],
      "name": "increaseAllowance",
      "outputs": [
        {
          "internalType": "bool",
          "name": "",
          "type": "bool"
        }
      ],
      "stateMutability": "nonpayable",
      "type": "function"
    },
    {
      "inputs": [
        {
          "internalType": "address",
          "name": "to",
          "type": "address"
        },
        {
          "internalType": "uint256",
          "name": "amount",
          "type": "uint256"
        }
      ],
      "name": "mint",
      "outputs": [],
      "stateMutability": "nonpayable",
      "type": "function"
    },
    {
      "inputs": [],
      "name": "name",
      "outputs": [
        {
          "internalType": "string",
          "name": "",
          "type": "string"
        }
      ],
      "stateMutability": "view",
      "type": "function"
    },
    {
      "inputs": [],
      "name": "owner",
      "outputs": [
        {
          "internalType": "address",
          "name": "",
          "type": "address"
        }
      ],
      "stateMutability": "view",
      "type": "function"
    },
    {
      "inputs": [],
      "name": "renounceOwnership",
      "outputs": [],
      "stateMutability": "nonpayable",
      "type": "function"
    },
    {
      "inputs": [],
      "name": "symbol",
      "outputs": [
        {
          "internalType": "string",
          "name": "",
          "type": "string"
        }
      ],
      "stateMutability": "view",
      "type": "function"
    },
    {
      "inputs": [],
      "name": "totalSupply",
      "outputs": [
        {
          "internalType": "uint256",
          "name": "",
          "type": "uint256"
        }
      ],
      "stateMutability": "view",
      "type": "function"
    },
    {
      "inputs": [
        {
          "internalType": "address",
          "name": "to",
          "type": "address"
        },
        {
          "internalType": "uint256",
          "name": "amount",
          "type": "uint256"
        }
      ],
      "name": "transfer",
      "outputs": [
        {
          "internalType": "bool",
          "name": "",
          "type": "bool"
        }
      ],
      "stateMutability": "nonpayable",
      "type": "function"
    },
    {
      "inputs": [
        {
          "internalType": "address",
          "name": "from",
          "type": "address"
        },
        {
          "internalType": "address",
          "name": "to",
          "type": "address"
        },
        {
          "internalType": "uint256",
          "name": "amount",
          "type": "uint256"
        }
      ],
      "name": "transferFrom",
      "outputs": [
        {
          "internalType": "bool",
          "name": "",
          "type": "bool"
        }
      ],
      "stateMutability": "nonpayable",
      "type": "function"
    },
    {
      "inputs": [
        {
          "internalType": "address",
          "name": "newOwner",
          "type": "address"
        }
      ],
      "name": "transferOwnership",
      "outputs": [],
      "stateMutability": "nonpayable",
      "type": "function"
    }
  ],
  "bytecode": "0x60806040523480156200001157600080fd5b506040518060400160405280600f81526020016e2a3934b9b7b630b934b99021b7b4b760891b8152506040518060400160405280600381526020016254524960e81b815250816003908162000067919062000286565b50600462000076828262000286565b505050620000936200008d620000c160201b60201c565b620000c5565b620000bb33620000a66012600a62000467565b620000b590620f42406200047f565b62000117565b620004af565b3390565b600580546001600160a01b038381166001600160a01b0319831681179093556040519116919082907f8be0079c531659141344cd1fd0a4f28419497f9722a3daafe3b4186f6b6457e090600090a35050565b6001600160a01b038216620001725760405162461bcd60e51b815260206004820152601f60248201527f45524332303a206d696e7420746f20746865207a65726f206164647265737300604482015260640160405180910390fd5b806002600082825462000186919062000499565b90915550506001600160a01b038216600081815260208181526040808320805486019055518481527fddf252ad1be2c89b69c2b068fc378daa952ba7f163c4a11628f55a4df523b3ef910160405180910390a35050565b505050565b634e487b7160e01b600052604160045260246000fd5b600181811c908216806200020d57607f821691505b6020821081036200022e57634e487b7160e01b600052602260045260246000fd5b50919050565b601f821115620001dd57600081815260208120601f850160051c810160208610156200025d5750805b601f850160051c820191505b818110156200027e5782815560010162000269565b505050505050565b81516001600160401b03811115620002a257620002a2620001e2565b620002ba81620002b38454620001f8565b8462000234565b602080601f831160018114620002f25760008415620002d95750858301515b600019600386901b1c1916600185901b1785556200027e565b600085815260208120601f198616915b82811015620003235788860151825594840194600190910190840162000302565b5085821015620003425787850151600019600388901b60f8161c191681555b5050505050600190811b01905550565b634e487b7160e01b600052601160045260246000fd5b600181815b80851115620003a95781600019048211156200038d576200038d62000352565b808516156200039b57918102915b93841c93908002906200036d565b509250929050565b600082620003c25750600162000461565b81620003d15750600062000461565b8160018114620003ea5760028114620003f55762000415565b600191505062000461565b60ff84111562000409576200040962000352565b50506001821b62000461565b5060208310610133831016604e8410600b84101617156200043a575081810a62000461565b62000446838362000368565b80600019048211156200045d576200045d62000352565b0290505b92915050565b60006200047860ff841683620003b1565b9392505050565b808202811582820484141762000461576200046162000352565b8082018082111562000461576200046162000352565b610c4980620004bf6000396000f3fe6080604052600436106100f35760003560e01c8063715018a61161008a578063a9059cbb11610059578063a9059cbb14610298578063d0febe4c146102b8578063dd62ed3e146102c0578063f2fde38b146102e057600080fd5b8063715018a6146102265780638da5cb5b1461023b57806395d89b4114610263578063a457c2d71461027857600080fd5b8063313ce567116100c6578063313ce5671461019257806339509351146101ae57806340c10f19146101ce57806370a08231146101f057600080fd5b806306fdde03146100f8578063095ea7b31461012357806318160ddd1461015357806323b872dd14610172575b600080fd5b34801561010457600080fd5b5061010d610300565b60405161011a9190610a74565b60405180910390f35b34801561012f57600080fd5b5061014361013e366004610ade565b610392565b604051901515815260200161011a565b34801561015f57600080fd5b506002545b60405190815260200161011a565b34801561017e57600080fd5b5061014361018d366004610b08565b6103ac565b34801561019e57600080fd5b506040516012815260200161011a565b3480156101ba57600080fd5b506101436101c9366004610ade565b6103d0565b3480156101da57600080fd5b506101ee6101e9366004610ade565b6103f2565b005b3480156101fc57600080fd5b5061016461020b366004610b44565b6001600160a01b031660009081526020819052604090205490565b34801561023257600080fd5b506101ee610408565b34801561024757600080fd5b506005546040516001600160a01b03909116815260200161011a565b34801561026f57600080fd5b5061010d61041c565b34801561028457600080fd5b50610143610293366004610ade565b61042b565b3480156102a457600080fd5b506101436102b3366004610ade565b6104ab565b6101ee6104b9565b3480156102cc57600080fd5b506101646102db366004610b66565b610526565b3480156102ec57600080fd5b506101ee6102fb366004610b44565b610551565b60606003805461030f90610b99565b80601f016020809104026020016040519081016040528092919081815260200182805461033b90610b99565b80156103885780601f1061035d57610100808354040283529160200191610388565b820191906000526020600020905b81548152906001019060200180831161036b57829003601f168201915b5050505050905090565b6000336103a08185856105c7565b60019150505b92915050565b6000336103ba8582856106eb565b6103c5858585610765565b506001949350505050565b6000336103a08185856103e38383610526565b6103ed9190610be9565b6105c7565b6103fa610909565b6104048282610963565b5050565b610410610909565b61041a6000610a22565b565b60606004805461030f90610b99565b600033816104398286610526565b90508381101561049e5760405162461bcd60e51b815260206004820152602560248201527f45524332303a2064656372656173656420616c6c6f77616e63652062656c6f77604482015264207a65726f60d81b60648201526084015b60405180910390fd5b6103c582868684036105c7565b6000336103a0818585610765565b600034116105095760405162461bcd60e51b815260206004820152601b60248201527f4d7573742073656e642045544820746f2062757920746f6b656e7300000000006044820152606401610495565b6000610517346103e8610bfc565b90506105233382610963565b50565b6001600160a01b03918216600090815260016020908152604080832093909416825291909152205490565b610559610909565b6001600160a01b0381166105be5760405162461bcd60e51b815260206004820152602660248201527f4f776e61626c653a206e6577206f776e657220697320746865207a65726f206160448201526564647265737360d01b6064820152608401610495565b61052381610a22565b6001600160a01b0383166106295760405162461bcd60e51b8152602060048201526024808201527f45524332303a20617070726f76652066726f6d20746865207a65726f206164646044820152637265737360e01b6064820152608401610495565b6001600160a01b03821661068a5760405162461bcd60e51b815260206004820152602260248201527f45524332303a20617070726f766520746f20746865207a65726f206164647265604482015261737360f01b6064820152608401610495565b6001600160a01b0383811660008181526001602090815260408083209487168084529482529182902085905590518481527f8c5be1e5ebec7d5bd14f71427d1e84f3dd0314c0f7b2291e5b200ac8c7c3b925910160405180910390a3505050565b60006106f78484610526565b9050600019811461075f57818110156107525760405162461bcd60e51b815260206004820152601d60248201527f45524332303a20696e73756666696369656e7420616c6c6f77616e63650000006044820152606401610495565b61075f84848484036105c7565b50505050565b6001600160a01b0383166107c95760405162461bcd60e51b815260206004820152602560248201527f45524332303a207472616e736665722066726f6d20746865207a65726f206164604482015264647265737360d81b6064820152608401610495565b6001600160a01b03821661082b5760405162461bcd60e51b815260206004820152602360248201527f45524332303a207472616e7366657220746f20746865207a65726f206164647260448201526265737360e81b6064820152608401610495565b6001600160a01b038316600090815260208190526040902054818110156108a35760405162461bcd60e51b815260206004820152602660248201527f45524332303a207472616e7366657220616d6f756e7420657863656564732062604482015265616c616e636560d01b6064820152608401610495565b6001600160a01b03848116600081815260208181526040808320878703905593871680835291849020805487019055925185815290927fddf252ad1be2c89b69c2b068fc378daa952ba7f163c4a11628f55a4df523b3ef910160405180910390a361075f565b6005546001600160a01b0316331461041a5760405162461bcd60e51b815260206004820181905260248201527f4f776e61626c653a2063616c6c6572206973206e6f7420746865206f776e65726044820152606401610495565b6001600160a01b0382166109b95760405162461bcd60e51b815260206004820152601f60248201527f45524332303a206d696e7420746f20746865207a65726f2061646472657373006044820152606401610495565b80600260008282546109cb9190610be9565b90915550506001600160a01b038216600081815260208181526040808320805486019055518481527fddf252ad1be2c89b69c2b068fc378daa952ba7f163c4a11628f55a4df523b3ef910160405180910390a35050565b600580546001600160a01b038381166001600160a01b0319831681179093556040519116919082907f8be0079c531659141344cd1fd0a4f28419497f9722a3daafe3b4186f6b6457e090600090a35050565b600060208083528351808285015260005b81811015610aa157858101830151858201604001528201610a85565b506000604082860101526040601f19601f8301168501019250505092915050565b80356001600160a01b0381168114610ad957600080fd5b919050565b60008060408385031215610af157600080fd5b610afa83610ac2565b946020939093013593505050565b600080600060608486031215610b1d57600080fd5b610b2684610ac2565b9250610b3460208501610ac2565b9150604084013590509250925092565b600060208284031215610b5657600080fd5b610b5f82610ac2565b9392505050565b60008060408385031215610b7957600080fd5b610b8283610ac2565b9150610b9060208401610ac2565b90509250929050565b600181811c90821680610bad57607f821691505b602082108103610bcd57634e487b7160e01b600052602260045260246000fd5b50919050565b634e487b7160e01b600052601160045260246000fd5b808201808211156103a6576103a6610bd3565b80820281158282048414176103a6576103a6610bd356fea2646970667358221220032f6e469a76fc8abf60bde8eaaa98e6cf96ce0294d4f573090727166b9a47d464736f6c63430008110033",
  "linkReferences": {},
  "deployedLinkReferences": {}
}