{
  "_format": "hh-sol-artifact-1",
  "contractName": "TrisolarisDraw_ETH",
  "sourceName": "contracts/TrisolarisDraw_ETH.sol",
  "abi": [
    {
      "inputs": [
        {
          "internalType": "address",
          "name": "_cardLibrary",
          "type": "address"
        }
      ],
      "stateMutability": "nonpayable",
      "type": "constructor"
    },
    {
      "anonymous": false,
      "inputs": [
        {
          "indexed": true,
          "internalType": "address",
          "name": "user",
          "type": "address"
        },
        {
          "indexed": false,
          "internalType": "uint256",
          "name": "cardId",
          "type": "uint256"
        },
        {
          "indexed": false,
          "internalType": "string",
          "name": "cardName",
          "type": "string"
        }
      ],
      "name": "CardDrawn",
      "type": "event"
    },
    {
      "anonymous": false,
      "inputs": [
        {
          "indexed": true,
          "internalType": "address",
          "name": "previousOwner",
          "type": "address"
        },
        {
          "indexed": true,
          "internalType": "address",
          "name": "newOwner",
          "type": "address"
        }
      ],
      "name": "OwnershipTransferred",
      "type": "event"
    },
    {
      "anonymous": false,
      "inputs": [
        {
          "indexed": true,
          "internalType": "address",
          "name": "user",
          "type": "address"
        },
        {
          "indexed": false,
          "internalType": "uint256",
          "name": "cardId",
          "type": "uint256"
        },
        {
          "indexed": false,
          "internalType": "uint256",
          "name": "reward",
          "type": "uint256"
        }
      ],
      "name": "TripleMatch",
      "type": "event"
    },
    {
      "inputs": [],
      "name": "cardLibrary",
      "outputs": [
        {
          "internalType": "contract CardLibrary",
          "name": "",
          "type": "address"
        }
      ],
      "stateMutability": "view",
      "type": "function"
    },
    {
      "inputs": [],
      "name": "drawCard",
      "outputs": [],
      "stateMutability": "payable",
      "type": "function"
    },
    {
      "inputs": [],
      "name": "drawPrice",
      "outputs": [
        {
          "internalType": "uint256",
          "name": "",
          "type": "uint256"
        }
      ],
      "stateMutability": "view",
      "type": "function"
    },
    {
      "inputs": [
        {
          "internalType": "address",
          "name": "user",
          "type": "address"
        }
      ],
      "name": "getUserHistory",
      "outputs": [
        {
          "internalType": "uint256[]",
          "name": "lastCards",
          "type": "uint256[]"
        },
        {
          "internalType": "uint256",
          "name": "totalDraws",
          "type": "uint256"
        },
        {
          "internalType": "uint256",
          "name": "totalRewards",
          "type": "uint256"
        }
      ],
      "stateMutability": "view",
      "type": "function"
    },
    {
      "inputs": [],
      "name": "jackpotBalance",
      "outputs": [
        {
          "internalType": "uint256",
          "name": "",
          "type": "uint256"
        }
      ],
      "stateMutability": "view",
      "type": "function"
    },
    {
      "inputs": [],
      "name": "jackpotContribution",
      "outputs": [
        {
          "internalType": "uint256",
          "name": "",
          "type": "uint256"
        }
      ],
      "stateMutability": "view",
      "type": "function"
    },
    {
      "inputs": [],
      "name": "owner",
      "outputs": [
        {
          "internalType": "address",
          "name": "",
          "type": "address"
        }
      ],
      "stateMutability": "view",
      "type": "function"
    },
    {
      "inputs": [],
      "name": "renounceOwnership",
      "outputs": [],
      "stateMutability": "nonpayable",
      "type": "function"
    },
    {
      "inputs": [
        {
          "internalType": "address",
          "name": "newOwner",
          "type": "address"
        }
      ],
      "name": "transferOwnership",
      "outputs": [],
      "stateMutability": "nonpayable",
      "type": "function"
    },
    {
      "inputs": [
        {
          "internalType": "address",
          "name": "",
          "type": "address"
        }
      ],
      "name": "userHistory",
      "outputs": [
        {
          "internalType": "uint256",
          "name": "totalDraws",
          "type": "uint256"
        },
        {
          "internalType": "uint256",
          "name": "totalRewards",
          "type": "uint256"
        }
      ],
      "stateMutability": "view",
      "type": "function"
    },
    {
      "inputs": [],
      "name": "withdraw",
      "outputs": [],
      "stateMutability": "nonpayable",
      "type": "function"
    }
  ],
  "bytecode": "0x6080604052662386f26fc100006003556000600455600a60055534801561002557600080fd5b50604051610d44380380610d44833981016040819052610044916100c9565b600160005561005233610077565b600280546001600160a01b0319166001600160a01b03929092169190911790556100f9565b600180546001600160a01b038381166001600160a01b0319831681179093556040519116919082907f8be0079c531659141344cd1fd0a4f28419497f9722a3daafe3b4186f6b6457e090600090a35050565b6000602082840312156100db57600080fd5b81516001600160a01b03811681146100f257600080fd5b9392505050565b610c3c806101086000396000f3fe60806040526004361061009c5760003560e01c8063715018a611610064578063715018a61461016457806383d0ddec146101795780638da5cb5b1461018f5780638e391508146101c1578063d8595d86146101e1578063f2fde38b146101f757600080fd5b8063040da8f4146100a1578063100cd71d146100ca5780632f5be23e146101165780633ccfd60b146101205780634fb3d3b114610135575b600080fd5b3480156100ad57600080fd5b506100b760045481565b6040519081526020015b60405180910390f35b3480156100d657600080fd5b506101016100e53660046108f2565b6006602052600090815260409020600181015460029091015482565b604080519283526020830191909152016100c1565b61011e610217565b005b34801561012c57600080fd5b5061011e6104d4565b34801561014157600080fd5b506101556101503660046108f2565b610575565b6040516100c193929190610922565b34801561017057600080fd5b5061011e6105fe565b34801561018557600080fd5b506100b760035481565b34801561019b57600080fd5b506001546001600160a01b03165b6040516001600160a01b0390911681526020016100c1565b3480156101cd57600080fd5b506002546101a9906001600160a01b031681565b3480156101ed57600080fd5b506100b760055481565b34801561020357600080fd5b5061011e6102123660046108f2565b610610565b61021f610689565b60035434101561026e5760405162461bcd60e51b8152602060048201526015602482015274125b9cdd59999a58da595b9d08115512081cd95b9d605a1b60448201526064015b60405180910390fd5b60006064600554346102809190610985565b61028a91906109b8565b9050806004600082825461029e91906109cc565b9091555050604080514260208201526bffffffffffffffffffffffff193360601b1691810191909152446054820152600090600a906074016040516020818303038152906040528051906020012060001c6102f991906109df565b6103049060016109cc565b60025460405163483bff2960e11b81526004810183905291925082916000916001600160a01b031690639077fe5290602401600060405180830381865afa158015610353573d6000803e3d6000fd5b505050506040513d6000823e601f3d908101601f1916820160405261037b9190810190610a9b565b60208082015133600090815260069092526040822060018082018054959650929491939092916103ac9084906109cc565b909155505080546003116104605760005b81546103cb90600190610b8a565b81101561042c57816103de8260016109cc565b815481106103ee576103ee610b9d565b906000526020600020015482600001828154811061040e5761040e610b9d565b6000918252602090912001558061042481610bb3565b9150506103bd565b5080548490829061043f90600190610b8a565b8154811061044f5761044f610b9d565b600091825260209091200155610476565b8054600181018255600082815260209020018490555b61047f336106e2565b336001600160a01b03167fe4a1b8b5ebfc8a3871e27a4fa34b199345d6fb6ea05f3c2ab7553f77301bf1b785846040516104ba929190610bcc565b60405180910390a25050505050506104d26001600055565b565b6104dc610846565b6000600454476104ec9190610b8a565b9050600081116105375760405162461bcd60e51b81526020600482015260166024820152754e6f2062616c616e636520746f20776974686472617760501b6044820152606401610265565b6001546040516001600160a01b039091169082156108fc029083906000818181858888f19350505050158015610571573d6000803e3d6000fd5b5050565b6001600160a01b03811660009081526006602090815260408083206001810154600282015482548451818702810187019095528085526060969586958594939290918591908301828280156105e957602002820191906000526020600020905b8154815260200190600101908083116105d5575b50505050509250935093509350509193909250565b610606610846565b6104d260006108a0565b610618610846565b6001600160a01b03811661067d5760405162461bcd60e51b815260206004820152602660248201527f4f776e61626c653a206e6577206f776e657220697320746865207a65726f206160448201526564647265737360d01b6064820152608401610265565b610686816108a0565b50565b6002600054036106db5760405162461bcd60e51b815260206004820152601f60248201527f5265656e7472616e637947756172643a207265656e7472616e742063616c6c006044820152606401610265565b6002600055565b6001600160a01b0381166000908152600660205260409020805460031115610708575050565b8054600090829061071b90600190610b8a565b8154811061072b5761072b610b9d565b600091825260208220015483549092506001919061074b90600390610b8a565b90505b8354811015610798578284600001828154811061076d5761076d610b9d565b9060005260206000200154146107865760009150610798565b8061079081610bb3565b91505061074e565b5080156108405760048054600091829055600285018054919283926107be9084906109cc565b90915550506040516001600160a01b0386169082156108fc029083906000818181858888f193505050501580156107f9573d6000803e3d6000fd5b5060408051848152602081018390526001600160a01b038716917f6dac28979faee30bd88f0a06d36686b2f8f3b7cac8b82ce5572edb80e5ba09c6910160405180910390a2505b50505050565b6001546001600160a01b031633146104d25760405162461bcd60e51b815260206004820181905260248201527f4f776e61626c653a2063616c6c6572206973206e6f7420746865206f776e65726044820152606401610265565b600180546001600160a01b038381166001600160a01b0319831681179093556040519116919082907f8be0079c531659141344cd1fd0a4f28419497f9722a3daafe3b4186f6b6457e090600090a35050565b60006020828403121561090457600080fd5b81356001600160a01b038116811461091b57600080fd5b9392505050565b606080825284519082018190526000906020906080840190828801845b8281101561095b5781518452928401929084019060010161093f565b505050908301949094525060400152919050565b634e487b7160e01b600052601160045260246000fd5b808202811582820484141761099c5761099c61096f565b92915050565b634e487b7160e01b600052601260045260246000fd5b6000826109c7576109c76109a2565b500490565b8082018082111561099c5761099c61096f565b6000826109ee576109ee6109a2565b500690565b634e487b7160e01b600052604160045260246000fd5b60405160a0810167ffffffffffffffff81118282101715610a2c57610a2c6109f3565b60405290565b604051601f8201601f1916810167ffffffffffffffff81118282101715610a5b57610a5b6109f3565b604052919050565b60005b83811015610a7e578181015183820152602001610a66565b50506000910152565b805160048110610a9657600080fd5b919050565b60006020808385031215610aae57600080fd5b825167ffffffffffffffff80821115610ac657600080fd5b9084019060a08287031215610ada57600080fd5b610ae2610a09565b825181528383015182811115610af757600080fd5b8301601f81018813610b0857600080fd5b805183811115610b1a57610b1a6109f3565b610b2c601f8201601f19168701610a32565b93508084528886828401011115610b4257600080fd5b610b5181878601888501610a63565b50508184820152610b6460408401610a87565b604082015260608301516060820152608083015160808201528094505050505092915050565b8181038181111561099c5761099c61096f565b634e487b7160e01b600052603260045260246000fd5b600060018201610bc557610bc561096f565b5060010190565b8281526040602082015260008251806040840152610bf1816060850160208701610a63565b601f01601f191691909101606001939250505056fea264697066735822122087bdae6d415943066f02f6f0fc412f15dbf4554919ca1ba35f390d94c0f8f82264736f6c63430008110033",
  "linkReferences": {},
  "deployedLinkReferences": {}
}