{
  "_format": "hh-sol-artifact-1",
  "contractName": "EvalisGovernor",
  "sourceName": "contracts/EvalisGovernor.sol",
  "abi": [
    {
      "inputs": [
        {
          "internalType": "contract IVotes",
          "name": "_token",
          "type": "address"
        },
        {
          "internalType": "uint256",
          "name": "_votingDelay",
          "type": "uint256"
        },
        {
          "internalType": "uint256",
          "name": "_votingPeriod",
          "type": "uint256"
        },
        {
          "internalType": "uint256",
          "name": "_quorumPercent",
          "type": "uint256"
        }
      ],
      "stateMutability": "nonpayable",
      "type": "constructor"
    },
    {
      "inputs": [],
      "name": "Empty",
      "type": "error"
    },
    {
      "inputs": [],
      "name": "InvalidShortString",
      "type": "error"
    },
    {
      "inputs": [
        {
          "internalType": "string",
          "name": "str",
          "type": "string"
        }
      ],
      "name": "StringTooLong",
      "type": "error"
    },
    {
      "anonymous": false,
      "inputs": [],
      "name": "EIP712DomainChanged",
      "type": "event"
    },
    {
      "anonymous": false,
      "inputs": [
        {
          "indexed": false,
          "internalType": "uint256",
          "name": "proposalId",
          "type": "uint256"
        }
      ],
      "name": "ProposalCanceled",
      "type": "event"
    },
    {
      "anonymous": false,
      "inputs": [
        {
          "indexed": false,
          "internalType": "uint256",
          "name": "proposalId",
          "type": "uint256"
        },
        {
          "indexed": false,
          "internalType": "address",
          "name": "proposer",
          "type": "address"
        },
        {
          "indexed": false,
          "internalType": "address[]",
          "name": "targets",
          "type": "address[]"
        },
        {
          "indexed": false,
          "internalType": "uint256[]",
          "name": "values",
          "type": "uint256[]"
        },
        {
          "indexed": false,
          "internalType": "string[]",
          "name": "signatures",
          "type": "string[]"
        },
        {
          "indexed": false,
          "internalType": "bytes[]",
          "name": "calldatas",
          "type": "bytes[]"
        },
        {
          "indexed": false,
          "internalType": "uint256",
          "name": "voteStart",
          "type": "uint256"
        },
        {
          "indexed": false,
          "internalType": "uint256",
          "name": "voteEnd",
          "type": "uint256"
        },
        {
          "indexed": false,
          "internalType": "string",
          "name": "description",
          "type": "string"
        }
      ],
      "name": "ProposalCreated",
      "type": "event"
    },
    {
      "anonymous": false,
      "inputs": [
        {
          "indexed": false,
          "internalType": "uint256",
          "name": "proposalId",
          "type": "uint256"
        }
      ],
      "name": "ProposalExecuted",
      "type": "event"
    },
    {
      "anonymous": false,
      "inputs": [
        {
          "indexed": false,
          "internalType": "uint256",
          "name": "oldQuorumNumerator",
          "type": "uint256"
        },
        {
          "indexed": false,
          "internalType": "uint256",
          "name": "newQuorumNumerator",
          "type": "uint256"
        }
      ],
      "name": "QuorumNumeratorUpdated",
      "type": "event"
    },
    {
      "anonymous": false,
      "inputs": [
        {
          "indexed": true,
          "internalType": "address",
          "name": "voter",
          "type": "address"
        },
        {
          "indexed": false,
          "internalType": "uint256",
          "name": "proposalId",
          "type": "uint256"
        },
        {
          "indexed": false,
          "internalType": "uint8",
          "name": "support",
          "type": "uint8"
        },
        {
          "indexed": false,
          "internalType": "uint256",
          "name": "weight",
          "type": "uint256"
        },
        {
          "indexed": false,
          "internalType": "string",
          "name": "reason",
          "type": "string"
        }
      ],
      "name": "VoteCast",
      "type": "event"
    },
    {
      "anonymous": false,
      "inputs": [
        {
          "indexed": true,
          "internalType": "address",
          "name": "voter",
          "type": "address"
        },
        {
          "indexed": false,
          "internalType": "uint256",
          "name": "proposalId",
          "type": "uint256"
        },
        {
          "indexed": false,
          "internalType": "uint8",
          "name": "support",
          "type": "uint8"
        },
        {
          "indexed": false,
          "internalType": "uint256",
          "name": "weight",
          "type": "uint256"
        },
        {
          "indexed": false,
          "internalType": "string",
          "name": "reason",
          "type": "string"
        },
        {
          "indexed": false,
          "internalType": "bytes",
          "name": "params",
          "type": "bytes"
        }
      ],
      "name": "VoteCastWithParams",
      "type": "event"
    },
    {
      "inputs": [],
      "name": "BALLOT_TYPEHASH",
      "outputs": [
        {
          "internalType": "bytes32",
          "name": "",
          "type": "bytes32"
        }
      ],
      "stateMutability": "view",
      "type": "function"
    },
    {
      "inputs": [],
      "name": "CLOCK_MODE",
      "outputs": [
        {
          "internalType": "string",
          "name": "",
          "type": "string"
        }
      ],
      "stateMutability": "view",
      "type": "function"
    },
    {
      "inputs": [],
      "name": "COUNTING_MODE",
      "outputs": [
        {
          "internalType": "string",
          "name": "",
          "type": "string"
        }
      ],
      "stateMutability": "pure",
      "type": "function"
    },
    {
      "inputs": [],
      "name": "EXTENDED_BALLOT_TYPEHASH",
      "outputs": [
        {
          "internalType": "bytes32",
          "name": "",
          "type": "bytes32"
        }
      ],
      "stateMutability": "view",
      "type": "function"
    },
    {
      "inputs": [
        {
          "internalType": "address[]",
          "name": "targets",
          "type": "address[]"
        },
        {
          "internalType": "uint256[]",
          "name": "values",
          "type": "uint256[]"
        },
        {
          "internalType": "bytes[]",
          "name": "calldatas",
          "type": "bytes[]"
        },
        {
          "internalType": "bytes32",
          "name": "descriptionHash",
          "type": "bytes32"
        }
      ],
      "name": "cancel",
      "outputs": [
        {
          "internalType": "uint256",
          "name": "",
          "type": "uint256"
        }
      ],
      "stateMutability": "nonpayable",
      "type": "function"
    },
    {
      "inputs": [
        {
          "internalType": "uint256",
          "name": "proposalId",
          "type": "uint256"
        },
        {
          "internalType": "uint8",
          "name": "support",
          "type": "uint8"
        }
      ],
      "name": "castVote",
      "outputs": [
        {
          "internalType": "uint256",
          "name": "",
          "type": "uint256"
        }
      ],
      "stateMutability": "nonpayable",
      "type": "function"
    },
    {
      "inputs": [
        {
          "internalType": "uint256",
          "name": "proposalId",
          "type": "uint256"
        },
        {
          "internalType": "uint8",
          "name": "support",
          "type": "uint8"
        },
        {
          "internalType": "uint8",
          "name": "v",
          "type": "uint8"
        },
        {
          "internalType": "bytes32",
          "name": "r",
          "type": "bytes32"
        },
        {
          "internalType": "bytes32",
          "name": "s",
          "type": "bytes32"
        }
      ],
      "name": "castVoteBySig",
      "outputs": [
        {
          "internalType": "uint256",
          "name": "",
          "type": "uint256"
        }
      ],
      "stateMutability": "nonpayable",
      "type": "function"
    },
    {
      "inputs": [
        {
          "internalType": "uint256",
          "name": "proposalId",
          "type": "uint256"
        },
        {
          "internalType": "uint8",
          "name": "support",
          "type": "uint8"
        },
        {
          "internalType": "string",
          "name": "reason",
          "type": "string"
        }
      ],
      "name": "castVoteWithReason",
      "outputs": [
        {
          "internalType": "uint256",
          "name": "",
          "type": "uint256"
        }
      ],
      "stateMutability": "nonpayable",
      "type": "function"
    },
    {
      "inputs": [
        {
          "internalType": "uint256",
          "name": "proposalId",
          "type": "uint256"
        },
        {
          "internalType": "uint8",
          "name": "support",
          "type": "uint8"
        },
        {
          "internalType": "string",
          "name": "reason",
          "type": "string"
        },
        {
          "internalType": "bytes",
          "name": "params",
          "type": "bytes"
        }
      ],
      "name": "castVoteWithReasonAndParams",
      "outputs": [
        {
          "internalType": "uint256",
          "name": "",
          "type": "uint256"
        }
      ],
      "stateMutability": "nonpayable",
      "type": "function"
    },
    {
      "inputs": [
        {
          "internalType": "uint256",
          "name": "proposalId",
          "type": "uint256"
        },
        {
          "internalType": "uint8",
          "name": "support",
          "type": "uint8"
        },
        {
          "internalType": "string",
          "name": "reason",
          "type": "string"
        },
        {
          "internalType": "bytes",
          "name": "params",
          "type": "bytes"
        },
        {
          "internalType": "uint8",
          "name": "v",
          "type": "uint8"
        },
        {
          "internalType": "bytes32",
          "name": "r",
          "type": "bytes32"
        },
        {
          "internalType": "bytes32",
          "name": "s",
          "type": "bytes32"
        }
      ],
      "name": "castVoteWithReasonAndParamsBySig",
      "outputs": [
        {
          "internalType": "uint256",
          "name": "",
          "type": "uint256"
        }
      ],
      "stateMutability": "nonpayable",
      "type": "function"
    },
    {
      "inputs": [],
      "name": "clock",
      "outputs": [
        {
          "internalType": "uint48",
          "name": "",
          "type": "uint48"
        }
      ],
      "stateMutability": "view",
      "type": "function"
    },
    {
      "inputs": [],
      "name": "eip712Domain",
      "outputs": [
        {
          "internalType": "bytes1",
          "name": "fields",
          "type": "bytes1"
        },
        {
          "internalType": "string",
          "name": "name",
          "type": "string"
        },
        {
          "internalType": "string",
          "name": "version",
          "type": "string"
        },
        {
          "internalType": "uint256",
          "name": "chainId",
          "type": "uint256"
        },
        {
          "internalType": "address",
          "name": "verifyingContract",
          "type": "address"
        },
        {
          "internalType": "bytes32",
          "name": "salt",
          "type": "bytes32"
        },
        {
          "internalType": "uint256[]",
          "name": "extensions",
          "type": "uint256[]"
        }
      ],
      "stateMutability": "view",
      "type": "function"
    },
    {
      "inputs": [
        {
          "internalType": "address[]",
          "name": "targets",
          "type": "address[]"
        },
        {
          "internalType": "uint256[]",
          "name": "values",
          "type": "uint256[]"
        },
        {
          "internalType": "bytes[]",
          "name": "calldatas",
          "type": "bytes[]"
        },
        {
          "internalType": "bytes32",
          "name": "descriptionHash",
          "type": "bytes32"
        }
      ],
      "name": "execute",
      "outputs": [
        {
          "internalType": "uint256",
          "name": "",
          "type": "uint256"
        }
      ],
      "stateMutability": "payable",
      "type": "function"
    },
    {
      "inputs": [
        {
          "internalType": "address",
          "name": "account",
          "type": "address"
        },
        {
          "internalType": "uint256",
          "name": "timepoint",
          "type": "uint256"
        }
      ],
      "name": "getVotes",
      "outputs": [
        {
          "internalType": "uint256",
          "name": "",
          "type": "uint256"
        }
      ],
      "stateMutability": "view",
      "type": "function"
    },
    {
      "inputs": [
        {
          "internalType": "address",
          "name": "account",
          "type": "address"
        },
        {
          "internalType": "uint256",
          "name": "timepoint",
          "type": "uint256"
        },
        {
          "internalType": "bytes",
          "name": "params",
          "type": "bytes"
        }
      ],
      "name": "getVotesWithParams",
      "outputs": [
        {
          "internalType": "uint256",
          "name": "",
          "type": "uint256"
        }
      ],
      "stateMutability": "view",
      "type": "function"
    },
    {
      "inputs": [
        {
          "internalType": "uint256",
          "name": "proposalId",
          "type": "uint256"
        },
        {
          "internalType": "address",
          "name": "account",
          "type": "address"
        }
      ],
      "name": "hasVoted",
      "outputs": [
        {
          "internalType": "bool",
          "name": "",
          "type": "bool"
        }
      ],
      "stateMutability": "view",
      "type": "function"
    },
    {
      "inputs": [
        {
          "internalType": "address[]",
          "name": "targets",
          "type": "address[]"
        },
        {
          "internalType": "uint256[]",
          "name": "values",
          "type": "uint256[]"
        },
        {
          "internalType": "bytes[]",
          "name": "calldatas",
          "type": "bytes[]"
        },
        {
          "internalType": "bytes32",
          "name": "descriptionHash",
          "type": "bytes32"
        }
      ],
      "name": "hashProposal",
      "outputs": [
        {
          "internalType": "uint256",
          "name": "",
          "type": "uint256"
        }
      ],
      "stateMutability": "pure",
      "type": "function"
    },
    {
      "inputs": [],
      "name": "name",
      "outputs": [
        {
          "internalType": "string",
          "name": "",
          "type": "string"
        }
      ],
      "stateMutability": "view",
      "type": "function"
    },
    {
      "inputs": [
        {
          "internalType": "address",
          "name": "",
          "type": "address"
        },
        {
          "internalType": "address",
          "name": "",
          "type": "address"
        },
        {
          "internalType": "uint256[]",
          "name": "",
          "type": "uint256[]"
        },
        {
          "internalType": "uint256[]",
          "name": "",
          "type": "uint256[]"
        },
        {
          "internalType": "bytes",
          "name": "",
          "type": "bytes"
        }
      ],
      "name": "onERC1155BatchReceived",
      "outputs": [
        {
          "internalType": "bytes4",
          "name": "",
          "type": "bytes4"
        }
      ],
      "stateMutability": "nonpayable",
      "type": "function"
    },
    {
      "inputs": [
        {
          "internalType": "address",
          "name": "",
          "type": "address"
        },
        {
          "internalType": "address",
          "name": "",
          "type": "address"
        },
        {
          "internalType": "uint256",
          "name": "",
          "type": "uint256"
        },
        {
          "internalType": "uint256",
          "name": "",
          "type": "uint256"
        },
        {
          "internalType": "bytes",
          "name": "",
          "type": "bytes"
        }
      ],
      "name": "onERC1155Received",
      "outputs": [
        {
          "internalType": "bytes4",
          "name": "",
          "type": "bytes4"
        }
      ],
      "stateMutability": "nonpayable",
      "type": "function"
    },
    {
      "inputs": [
        {
          "internalType": "address",
          "name": "",
          "type": "address"
        },
        {
          "internalType": "address",
          "name": "",
          "type": "address"
        },
        {
          "internalType": "uint256",
          "name": "",
          "type": "uint256"
        },
        {
          "internalType": "bytes",
          "name": "",
          "type": "bytes"
        }
      ],
      "name": "onERC721Received",
      "outputs": [
        {
          "internalType": "bytes4",
          "name": "",
          "type": "bytes4"
        }
      ],
      "stateMutability": "nonpayable",
      "type": "function"
    },
    {
      "inputs": [
        {
          "internalType": "uint256",
          "name": "proposalId",
          "type": "uint256"
        }
      ],
      "name": "proposalDeadline",
      "outputs": [
        {
          "internalType": "uint256",
          "name": "",
          "type": "uint256"
        }
      ],
      "stateMutability": "view",
      "type": "function"
    },
    {
      "inputs": [
        {
          "internalType": "uint256",
          "name": "proposalId",
          "type": "uint256"
        }
      ],
      "name": "proposalProposer",
      "outputs": [
        {
          "internalType": "address",
          "name": "",
          "type": "address"
        }
      ],
      "stateMutability": "view",
      "type": "function"
    },
    {
      "inputs": [
        {
          "internalType": "uint256",
          "name": "proposalId",
          "type": "uint256"
        }
      ],
      "name": "proposalSnapshot",
      "outputs": [
        {
          "internalType": "uint256",
          "name": "",
          "type": "uint256"
        }
      ],
      "stateMutability": "view",
      "type": "function"
    },
    {
      "inputs": [],
      "name": "proposalThreshold",
      "outputs": [
        {
          "internalType": "uint256",
          "name": "",
          "type": "uint256"
        }
      ],
      "stateMutability": "view",
      "type": "function"
    },
    {
      "inputs": [
        {
          "internalType": "uint256",
          "name": "proposalId",
          "type": "uint256"
        }
      ],
      "name": "proposalVotes",
      "outputs": [
        {
          "internalType": "uint256",
          "name": "againstVotes",
          "type": "uint256"
        },
        {
          "internalType": "uint256",
          "name": "forVotes",
          "type": "uint256"
        },
        {
          "internalType": "uint256",
          "name": "abstainVotes",
          "type": "uint256"
        }
      ],
      "stateMutability": "view",
      "type": "function"
    },
    {
      "inputs": [
        {
          "internalType": "address[]",
          "name": "targets",
          "type": "address[]"
        },
        {
          "internalType": "uint256[]",
          "name": "values",
          "type": "uint256[]"
        },
        {
          "internalType": "bytes[]",
          "name": "calldatas",
          "type": "bytes[]"
        },
        {
          "internalType": "string",
          "name": "description",
          "type": "string"
        }
      ],
      "name": "propose",
      "outputs": [
        {
          "internalType": "uint256",
          "name": "",
          "type": "uint256"
        }
      ],
      "stateMutability": "nonpayable",
      "type": "function"
    },
    {
      "inputs": [
        {
          "internalType": "uint256",
          "name": "blockNumber",
          "type": "uint256"
        }
      ],
      "name": "quorum",
      "outputs": [
        {
          "internalType": "uint256",
          "name": "",
          "type": "uint256"
        }
      ],
      "stateMutability": "view",
      "type": "function"
    },
    {
      "inputs": [],
      "name": "quorumDenominator",
      "outputs": [
        {
          "internalType": "uint256",
          "name": "",
          "type": "uint256"
        }
      ],
      "stateMutability": "view",
      "type": "function"
    },
    {
      "inputs": [
        {
          "internalType": "uint256",
          "name": "timepoint",
          "type": "uint256"
        }
      ],
      "name": "quorumNumerator",
      "outputs": [
        {
          "internalType": "uint256",
          "name": "",
          "type": "uint256"
        }
      ],
      "stateMutability": "view",
      "type": "function"
    },
    {
      "inputs": [],
      "name": "quorumNumerator",
      "outputs": [
        {
          "internalType": "uint256",
          "name": "",
          "type": "uint256"
        }
      ],
      "stateMutability": "view",
      "type": "function"
    },
    {
      "inputs": [
        {
          "internalType": "address",
          "name": "target",
          "type": "address"
        },
        {
          "internalType": "uint256",
          "name": "value",
          "type": "uint256"
        },
        {
          "internalType": "bytes",
          "name": "data",
          "type": "bytes"
        }
      ],
      "name": "relay",
      "outputs": [],
      "stateMutability": "payable",
      "type": "function"
    },
    {
      "inputs": [],
      "name": "s_votingDelay",
      "outputs": [
        {
          "internalType": "uint256",
          "name": "",
          "type": "uint256"
        }
      ],
      "stateMutability": "view",
      "type": "function"
    },
    {
      "inputs": [],
      "name": "s_votingPeriod",
      "outputs": [
        {
          "internalType": "uint256",
          "name": "",
          "type": "uint256"
        }
      ],
      "stateMutability": "view",
      "type": "function"
    },
    {
      "inputs": [
        {
          "internalType": "uint256",
          "name": "proposalId",
          "type": "uint256"
        }
      ],
      "name": "state",
      "outputs": [
        {
          "internalType": "enum IGovernor.ProposalState",
          "name": "",
          "type": "uint8"
        }
      ],
      "stateMutability": "view",
      "type": "function"
    },
    {
      "inputs": [
        {
          "internalType": "bytes4",
          "name": "interfaceId",
          "type": "bytes4"
        }
      ],
      "name": "supportsInterface",
      "outputs": [
        {
          "internalType": "bool",
          "name": "",
          "type": "bool"
        }
      ],
      "stateMutability": "view",
      "type": "function"
    },
    {
      "inputs": [],
      "name": "token",
      "outputs": [
        {
          "internalType": "contract IERC5805",
          "name": "",
          "type": "address"
        }
      ],
      "stateMutability": "view",
      "type": "function"
    },
    {
      "inputs": [
        {
          "internalType": "uint256",
          "name": "newQuorumNumerator",
          "type": "uint256"
        }
      ],
      "name": "updateQuorumNumerator",
      "outputs": [],
      "stateMutability": "nonpayable",
      "type": "function"
    },
    {
      "inputs": [],
      "name": "version",
      "outputs": [
        {
          "internalType": "string",
          "name": "",
          "type": "string"
        }
      ],
      "stateMutability": "view",
      "type": "function"
    },
    {
      "inputs": [],
      "name": "votingDelay",
      "outputs": [
        {
          "internalType": "uint256",
          "name": "",
          "type": "uint256"
        }
      ],
      "stateMutability": "view",
      "type": "function"
    },
    {
      "inputs": [],
      "name": "votingPeriod",
      "outputs": [
        {
          "internalType": "uint256",
          "name": "",
          "type": "uint256"
        }
      ],
      "stateMutability": "view",
      "type": "function"
    },
    {
      "stateMutability": "payable",
      "type": "receive"
    }
  ],
  "bytecode": "0x6101806040523480156200001257600080fd5b50604051620046a3380380620046a3833981016040819052620000359162000778565b80846040518060400160405280600e81526020016d22bb30b634b9a3b7bb32b93737b960911b815250806200006f6200015e60201b60201c565b6200007c82600062000179565b610120526200008d81600162000179565b61014052815160208084019190912060e052815190820120610100524660a0526200011b60e05161010051604080517f8b73c3c69bb8fe3d512ecc4cf759cc79239f7b179b0ffacaa9a75d522b39400f60208201529081019290925260608201524660808201523060a082015260009060c00160405160208183030381529060405280519060200120905090565b60805250503060c05260026200013282826200086c565b50506001600160a01b0316610160526200014c81620001b2565b5050600991909155600a5550620009fa565b6040805180820190915260018152603160f81b602082015290565b60006020835110156200019957620001918362000335565b9050620001ac565b81620001a684826200086c565b5060ff90505b92915050565b60648111156200023b5760405162461bcd60e51b815260206004820152604360248201527f476f7665726e6f72566f74657351756f72756d4672616374696f6e3a2071756f60448201527f72756d4e756d657261746f72206f7665722071756f72756d44656e6f6d696e616064820152623a37b960e91b608482015260a4015b60405180910390fd5b60006200024762000378565b90508015801590620002595750600854155b15620002c1576040805180820190915260008152600890602081016200027f84620003a7565b6001600160e01b0390811690915282546001810184556000938452602093849020835194909301519091166401000000000263ffffffff909316929092179101555b620002f6620002e1620002d362000416565b65ffffffffffff166200048d565b620002ec84620003a7565b60089190620004f4565b505060408051828152602081018490527f0553476bf02ef2726e8ce5ced78d63e26e602e4a2257b1f559418e24b4633997910160405180910390a15050565b600080829050601f8151111562000363578260405163305a27a960e01b815260040162000232919062000938565b8051620003708262000989565b179392505050565b600854600090156200039e5762000390600862000511565b6001600160e01b0316905090565b6007545b905090565b60006001600160e01b03821115620004125760405162461bcd60e51b815260206004820152602760248201527f53616665436173743a2076616c756520646f65736e27742066697420696e20326044820152663234206269747360c81b606482015260840162000232565b5090565b6000610160516001600160a01b03166391ddadf46040518163ffffffff1660e01b8152600401602060405180830381865afa92505050801562000478575060408051601f3d908101601f191682019092526200047591810190620009ae565b60015b6200048857620003a2436200055f565b919050565b600063ffffffff821115620004125760405162461bcd60e51b815260206004820152602660248201527f53616665436173743a2076616c756520646f65736e27742066697420696e203360448201526532206269747360d01b606482015260840162000232565b60008062000504858585620005c8565b915091505b935093915050565b8054600090801562000555576200053d836200052f600184620009d8565b600091825260209091200190565b5464010000000090046001600160e01b031662000558565b60005b9392505050565b600065ffffffffffff821115620004125760405162461bcd60e51b815260206004820152602660248201527f53616665436173743a2076616c756520646f65736e27742066697420696e203460448201526538206269747360d01b606482015260840162000232565b8254600090819080156200071d576000620005ea876200052f600185620009d8565b60408051808201909152905463ffffffff8082168084526401000000009092046001600160e01b0316602084015291925090871610156200066e5760405162461bcd60e51b815260206004820152601b60248201527f436865636b706f696e743a2064656372656173696e67206b6579730000000000604482015260640162000232565b805163ffffffff808816911603620006bc578462000693886200052f600186620009d8565b80546001600160e01b03929092166401000000000263ffffffff9092169190911790556200070c565b6040805180820190915263ffffffff80881682526001600160e01b0380881660208085019182528b54600181018d5560008d81529190912094519151909216640100000000029216919091179101555b602001519250839150620005099050565b50506040805180820190915263ffffffff80851682526001600160e01b0380851660208085019182528854600181018a5560008a81529182209551925190931664010000000002919093161792019190915590508162000509565b600080600080608085870312156200078f57600080fd5b84516001600160a01b0381168114620007a757600080fd5b60208601516040870151606090970151919890975090945092505050565b634e487b7160e01b600052604160045260246000fd5b600181811c90821680620007f057607f821691505b6020821081036200081157634e487b7160e01b600052602260045260246000fd5b50919050565b601f82111562000867576000816000526020600020601f850160051c81016020861015620008425750805b601f850160051c820191505b8181101562000863578281556001016200084e565b5050505b505050565b81516001600160401b03811115620008885762000888620007c5565b620008a081620008998454620007db565b8462000817565b602080601f831160018114620008d85760008415620008bf5750858301515b600019600386901b1c1916600185901b17855562000863565b600085815260208120601f198616915b828110156200090957888601518255948401946001909101908401620008e8565b5085821015620009285787850151600019600388901b60f8161c191681555b5050505050600190811b01905550565b60006020808352835180602085015260005b8181101562000968578581018301518582016040015282016200094a565b506000604082860101526040601f19601f8301168501019250505092915050565b80516020808301519190811015620008115760001960209190910360031b1b16919050565b600060208284031215620009c157600080fd5b815165ffffffffffff811681146200055857600080fd5b81810381811115620001ac57634e487b7160e01b600052601160045260246000fd5b60805160a05160c05160e05161010051610120516101405161016051613c2762000a7c6000396000818161087001528181610f43015281816115ce0152818161223301526123150152600061157a01526000611550015260006124760152600061244e015260006123a9015260006123d3015260006123fd0152613c276000f3fe60806040526004361061024a5760003560e01c80635f398a1411610139578063b58131b0116100b6578063dd4e2ba51161007a578063dd4e2ba514610778578063deaaa7cc146107be578063eb9019d4146107f2578063f23a6e6114610812578063f8ce560a1461083e578063fc0c546a1461085e57600080fd5b8063b58131b0146106cc578063bc197c81146106e0578063c01f9e371461070c578063c28bc2fa14610745578063c59057e41461075857600080fd5b806384b0196e116100fd57806384b0196e1461062f57806391ddadf41461065757806397c3d334146106835780639a802a6d14610697578063a7713a70146106b757600080fd5b80635f398a141461059957806360c4247f146105b9578063725ae3dc146105d95780637b3c71d3146105ef5780637d5e81e21461060f57600080fd5b80632fe3e261116101c7578063452115d61161018b578063452115d6146104c55780634bf5d7e9146104e5578063544ffc9c146104fa57806354fd4d501461054f578063567813881461057957600080fd5b80632fe3e2611461040f5780633932abb1146104435780633bccf4fd146104585780633e4f49e61461047857806343859632146104a557600080fd5b8063102d7f2c1161020e578063102d7f2c14610317578063143489d01461032d578063150b7a02146103825780632656227d146103c65780632d63f693146103d957600080fd5b806301ffc9a71461026157806302a251a31461029657806303420181146102b557806306f3f9e6146102d557806306fdde03146102f557600080fd5b3661025c57005b60405180910390fd5b005b600080fd5b34801561026d57600080fd5b5061028161027c366004612ddc565b610892565b60405190151581526020015b60405180910390f35b3480156102a257600080fd5b50600a545b60405190815260200161028d565b3480156102c157600080fd5b506102a76102d0366004612f2a565b61092f565b3480156102e157600080fd5b5061025a6102f0366004612fd0565b610a27565b34801561030157600080fd5b5061030a610a94565b60405161028d9190613039565b34801561032357600080fd5b506102a760095481565b34801561033957600080fd5b5061036a610348366004612fd0565b600090815260036020526040902054600160401b90046001600160a01b031690565b6040516001600160a01b03909116815260200161028d565b34801561038e57600080fd5b506103ad61039d366004613063565b630a85bd0160e11b949350505050565b6040516001600160e01b0319909116815260200161028d565b6102a76103d436600461323c565b610b26565b3480156103e557600080fd5b506102a76103f4366004612fd0565b6000908152600360205260409020546001600160401b031690565b34801561041b57600080fd5b506102a77fb3b3f3b703cd84ce352197dcff232b1b5d3cfb2025ce47cf04742d0651f1af8881565b34801561044f57600080fd5b506009546102a7565b34801561046457600080fd5b506102a76104733660046132cb565b610c52565b34801561048457600080fd5b50610498610493366004612fd0565b610cc8565b60405161028d919061332f565b3480156104b157600080fd5b506102816104c0366004613357565b610e08565b3480156104d157600080fd5b506102a76104e036600461323c565b610e38565b3480156104f157600080fd5b5061030a610f3f565b34801561050657600080fd5b50610534610515366004612fd0565b6000908152600660205260409020805460018201546002909201549092565b6040805193845260208401929092529082015260600161028d565b34801561055b57600080fd5b506040805180820190915260018152603160f81b602082015261030a565b34801561058557600080fd5b506102a7610594366004613383565b611001565b3480156105a557600080fd5b506102a76105b43660046133a6565b61102a565b3480156105c557600080fd5b506102a76105d4366004612fd0565b611074565b3480156105e557600080fd5b506102a7600a5481565b3480156105fb57600080fd5b506102a761060a366004613429565b611125565b34801561061b57600080fd5b506102a761062a366004613482565b61116d565b34801561063b57600080fd5b50610644611542565b60405161028d9796959493929190613572565b34801561066357600080fd5b5061066c6115ca565b60405165ffffffffffff909116815260200161028d565b34801561068f57600080fd5b5060646102a7565b3480156106a357600080fd5b506102a76106b23660046135d4565b611658565b3480156106c357600080fd5b506102a761166f565b3480156106d857600080fd5b5060006102a7565b3480156106ec57600080fd5b506103ad6106fb36600461362a565b63bc197c8160e01b95945050505050565b34801561071857600080fd5b506102a7610727366004612fd0565b6000908152600360205260409020600101546001600160401b031690565b61025a6107533660046136b9565b611699565b34801561076457600080fd5b506102a761077336600461323c565b61178b565b34801561078457600080fd5b506040805180820190915260208082527f737570706f72743d627261766f2671756f72756d3d666f722c6162737461696e9082015261030a565b3480156107ca57600080fd5b506102a77f150214d74d59b7d1e90c73fc22ef3d991dd0a76b046543d4d80ab92d2a50328f81565b3480156107fe57600080fd5b506102a761080d3660046136fa565b6117c5565b34801561081e57600080fd5b506103ad61082d366004613724565b63f23a6e6160e01b95945050505050565b34801561084a57600080fd5b506102a7610859366004612fd0565b6117e6565b34801561086a57600080fd5b5061036a7f000000000000000000000000000000000000000000000000000000000000000081565b600063288ace0360e11b6318df743f60e31b63bf26d89760e01b6379dd796f60e01b6001600160e01b031986168214806108d857506001600160e01b0319868116908216145b806108ef57506001600160e01b0319868116908516145b8061090a57506001600160e01b03198616630271189760e51b145b8061092557506301ffc9a760e01b6001600160e01b03198716145b9695505050505050565b6000806109d36109cb7fb3b3f3b703cd84ce352197dcff232b1b5d3cfb2025ce47cf04742d0651f1af888c8c8c8c60405161096b929190613788565b60405180910390208b805190602001206040516020016109b0959493929190948552602085019390935260ff9190911660408401526060830152608082015260a00190565b604051602081830303815290604052805190602001206117f1565b86868661181e565b9050610a198a828b8b8b8080601f0160208091040260200160405190810160405280939291908181526020018383808284376000920191909152508d925061183c915050565b9a9950505050505050505050565b333014610a715760405162461bcd60e51b8152602060048201526018602482015277476f7665726e6f723a206f6e6c79476f7665726e616e636560401b6044820152606401610251565b610a88565b80610a816004611991565b03610a7657505b610a9181611a10565b50565b606060028054610aa390613798565b80601f0160208091040260200160405190810160405280929190818152602001828054610acf90613798565b8015610b1c5780601f10610af157610100808354040283529160200191610b1c565b820191906000526020600020905b815481529060010190602001808311610aff57829003601f168201915b5050505050905090565b600080610b358686868661178b565b90506000610b4282610cc8565b90506004816007811115610b5857610b58613319565b1480610b7557506005816007811115610b7357610b73613319565b145b610bcb5760405162461bcd60e51b815260206004820152602160248201527f476f7665726e6f723a2070726f706f73616c206e6f74207375636365737366756044820152601b60fa1b6064820152608401610251565b60008281526003602052604090819020600201805460ff19166001179055517f712ae1383f79ac853f8d882153778e0260ef8f03b504e2866e0593e04d2b291f90610c199084815260200190565b60405180910390a1610c2e8288888888611b7e565b610c3b8288888888611c03565b610c488288888888611b7e565b5095945050505050565b604080517f150214d74d59b7d1e90c73fc22ef3d991dd0a76b046543d4d80ab92d2a50328f602082015290810186905260ff851660608201526000908190610ca0906109cb906080016109b0565b9050610cbd87828860405180602001604052806000815250611cf3565b979650505050505050565b6000818152600360205260408120600281015460ff1615610cec5750600792915050565b6002810154610100900460ff1615610d075750600292915050565b6000838152600360205260408120546001600160401b031690819003610d6f5760405162461bcd60e51b815260206004820152601d60248201527f476f7665726e6f723a20756e6b6e6f776e2070726f706f73616c2069640000006044820152606401610251565b6000610d796115ca565b65ffffffffffff169050808210610d9557506000949350505050565b6000858152600360205260409020600101546001600160401b0316818110610dc35750600195945050505050565b610dcc86611d1f565b8015610deb575060008681526006602052604090208054600190910154115b15610dfc5750600495945050505050565b50600395945050505050565b60008281526006602090815260408083206001600160a01b038516845260030190915290205460ff165b92915050565b600080610e478686868661178b565b90506000610e5482610cc8565b6007811115610e6557610e65613319565b14610eb25760405162461bcd60e51b815260206004820152601c60248201527f476f7665726e6f723a20746f6f206c61746520746f2063616e63656c000000006044820152606401610251565b600081815260036020526040902054600160401b90046001600160a01b0316336001600160a01b031614610f335760405162461bcd60e51b815260206004820152602260248201527f476f7665726e6f723a206f6e6c792070726f706f7365722063616e2063616e63604482015261195b60f21b6064820152608401610251565b61092586868686611d6b565b60607f00000000000000000000000000000000000000000000000000000000000000006001600160a01b0316634bf5d7e96040518163ffffffff1660e01b8152600401600060405180830381865afa925050508015610fc057506040513d6000823e601f3d908101601f19168201604052610fbd91908101906137d2565b60015b610ffc575060408051808201909152601d81527f6d6f64653d626c6f636b6e756d6265722666726f6d3d64656661756c74000000602082015290565b919050565b60008033905061102284828560405180602001604052806000815250611cf3565b949350505050565b600080339050610cbd87828888888080601f0160208091040260200160405190810160405280939291908181526020018383808284376000920191909152508a925061183c915050565b60085460009080820361108b575050600754919050565b6000600861109a600184613855565b815481106110aa576110aa613868565b60009182526020918290206040805180820190915291015463ffffffff8116808352600160201b9091046001600160e01b0316928201929092529150841061110057602001516001600160e01b03169392505050565b61111461110c85611e89565b600890611ef2565b6001600160e01b0316949350505050565b60008033905061092586828787878080601f016020809104026020016040519081016040528093929190818152602001838380828437600092019190915250611cf392505050565b60003361117a8184611fa5565b6111c65760405162461bcd60e51b815260206004820152601d60248201527f476f7665726e6f723a2070726f706f73657220726573747269637465640000006044820152606401610251565b60006111d06115ca565b65ffffffffffff16905060006111eb8361080d600185613855565b10156112535760405162461bcd60e51b815260206004820152603160248201527f476f7665726e6f723a2070726f706f73657220766f7465732062656c6f7720706044820152701c9bdc1bdcd85b081d1a1c995cda1bdb19607a1b6064820152608401610251565b6000611268888888888051906020012061178b565b9050865188511461128b5760405162461bcd60e51b81526004016102519061387e565b85518851146112ac5760405162461bcd60e51b81526004016102519061387e565b60008851116112fd5760405162461bcd60e51b815260206004820152601860248201527f476f7665726e6f723a20656d7074792070726f706f73616c00000000000000006044820152606401610251565b6000818152600360205260409020546001600160401b03161561136c5760405162461bcd60e51b815260206004820152602160248201527f476f7665726e6f723a2070726f706f73616c20616c72656164792065786973746044820152607360f81b6064820152608401610251565b600061137760095490565b61138190846138bf565b9050600061138e600a5490565b61139890836138bf565b90506040518060e001604052806113ae84612090565b6001600160401b031681526001600160a01b0387166020820152600060408201526060016113db83612090565b6001600160401b039081168252600060208084018290526040808501839052606094850183905288835260038252918290208551815492870151878501519186166001600160e01b031990941693909317600160401b6001600160a01b039094168402176001600160e01b0316600160e01b60e09290921c91909102178155938501516080860151908416921c0217600183015560a08301516002909201805460c09094015161ffff1990941692151561ff00191692909217610100931515939093029290921790558a517f7d84a6263ae0d98d3329bd7b46bb4e8d6f98cd35a7adb45c274c8b7fd5ebd5e091859188918e918e918111156114df576114df612e5f565b60405190808252806020026020018201604052801561151257816020015b60608152602001906001900390816114fd5790505b508d88888f60405161152c99989796959493929190613966565b60405180910390a1509098975050505050505050565b6000606080828080836115757f0000000000000000000000000000000000000000000000000000000000000000836120f8565b6115a07f000000000000000000000000000000000000000000000000000000000000000060016120f8565b60408051600080825260208201909252600f60f81b9b939a50919850469750309650945092509050565b60007f00000000000000000000000000000000000000000000000000000000000000006001600160a01b03166391ddadf46040518163ffffffff1660e01b8152600401602060405180830381865afa925050508015611646575060408051601f3d908101601f1916820190925261164391810190613a3d565b60015b610ffc57611653436121a3565b905090565b600061166584848461220a565b90505b9392505050565b600854600090156116925761168460086122a0565b6001600160e01b0316905090565b5060075490565b3330146116e35760405162461bcd60e51b8152602060048201526018602482015277476f7665726e6f723a206f6e6c79476f7665726e616e636560401b6044820152606401610251565b6116fa565b806116f36004611991565b036116e857505b600080856001600160a01b0316858585604051611718929190613788565b60006040518083038185875af1925050503d8060008114611755576040519150601f19603f3d011682016040523d82523d6000602084013e61175a565b606091505b50915091506117828282604051806060016040528060288152602001613ba3602891396122d9565b50505050505050565b6000848484846040516020016117a49493929190613a65565b60408051601f19818403018152919052805160209091012095945050505050565b600061166883836117e160408051602081019091526000815290565b61220a565b6000610e32826122f2565b6000610e326117fe61239c565b8360405161190160f01b8152600281019290925260228201526042902090565b600080600061182f878787876124c7565b91509150610c488161258b565b6000858152600360205260408120600161185588610cc8565b600781111561186657611866613319565b146118bf5760405162461bcd60e51b815260206004820152602360248201527f476f7665726e6f723a20766f7465206e6f742063757272656e746c792061637460448201526269766560e81b6064820152608401610251565b80546000906118d99088906001600160401b03168661220a565b90506118e888888884886126d5565b835160000361193d57866001600160a01b03167fb8e138887d0aa13bab447e82de9d5c1777041ecd21ca36ba824ff1e6c07ddda4898884896040516119309493929190613ab0565b60405180910390a2610cbd565b866001600160a01b03167fe2babfbac5889a709b63bb7f598b324e08bc5a4fb9ec647fb3cbc9ec07eb8712898884898960405161197e959493929190613ad8565b60405180910390a2979650505050505050565b60006119ac8254600f81810b600160801b909204900b131590565b156119ca57604051631ed9509560e11b815260040160405180910390fd5b508054600f0b6000818152600180840160205260408220805492905583546fffffffffffffffffffffffffffffffff191692016001600160801b03169190911790915590565b6064811115611a935760405162461bcd60e51b815260206004820152604360248201527f476f7665726e6f72566f74657351756f72756d4672616374696f6e3a2071756f60448201527f72756d4e756d657261746f72206f7665722071756f72756d44656e6f6d696e616064820152623a37b960e91b608482015260a401610251565b6000611a9d61166f565b90508015801590611aae5750600854155b15611b1257604080518082019091526000815260089060208101611ad18461284f565b6001600160e01b039081169091528254600181018455600093845260209384902083519490930151909116600160201b0263ffffffff909316929092179101555b611b3f611b2d611b206115ca565b65ffffffffffff16611e89565b611b368461284f565b600891906128b8565b505060408051828152602081018490527f0553476bf02ef2726e8ce5ced78d63e26e602e4a2257b1f559418e24b4633997910160405180910390a15050565b611bfc565b8451811015611bfa57306001600160a01b0316858281518110611ba857611ba8613868565b60200260200101516001600160a01b031603611bf257611bf2838281518110611bd357611bd3613868565b60200260200101518051906020012060046128d390919063ffffffff16565b600101611b83565b505b5050505050565b6000604051806060016040528060278152602001613bcb60279139905060005b855181101561178257600080878381518110611c4157611c41613868565b60200260200101516001600160a01b0316878481518110611c6457611c64613868565b6020026020010151878581518110611c7e57611c7e613868565b6020026020010151604051611c939190613b1e565b60006040518083038185875af1925050503d8060008114611cd0576040519150601f19603f3d011682016040523d82523d6000602084013e611cd5565b606091505b5091509150611ce58282866122d9565b505050806001019050611c23565b6000611d1685858585611d1160408051602081019091526000815290565b61183c565b95945050505050565b600081815260066020526040812060028101546001820154611d4191906138bf565b600084815260036020526040902054611d62906001600160401b03166117e6565b11159392505050565b600080611d7a8686868661178b565b90506000611d8782610cc8565b90506002816007811115611d9d57611d9d613319565b14158015611dbd57506006816007811115611dba57611dba613319565b14155b8015611ddb57506007816007811115611dd857611dd8613319565b14155b611e275760405162461bcd60e51b815260206004820152601d60248201527f476f7665726e6f723a2070726f706f73616c206e6f74206163746976650000006044820152606401610251565b60008281526003602052604090819020600201805461ff001916610100179055517f789cf55be980739dad1d0699b93b58e806b51c9d96619bfa8fe0a28abaa7b30c90611e779084815260200190565b60405180910390a15095945050505050565b600063ffffffff821115611eee5760405162461bcd60e51b815260206004820152602660248201527f53616665436173743a2076616c756520646f65736e27742066697420696e203360448201526532206269747360d01b6064820152608401610251565b5090565b815460009081816005811115611f4f576000611f0d8461290f565b611f179085613855565b60008881526020902090915081015463ffffffff9081169087161015611f3f57809150611f4d565b611f4a8160016138bf565b92505b505b6000611f5d878785856129f7565b90508015611f9857611f8287611f74600184613855565b600091825260209091200190565b54600160201b90046001600160e01b0316610cbd565b6000979650505050505050565b80516000906034811015611fbd576001915050610e32565b82810160131901516001600160a01b031981166b046e0e4dee0dee6cae47a60f60a31b14611ff057600192505050610e32565b600080611ffe602885613855565b90505b8381101561206f5760008061203588848151811061202157612021613868565b01602001516001600160f81b031916612a55565b915091508161204d5760019650505050505050610e32565b8060ff166004856001600160a01b0316901b1793505050806001019050612001565b50856001600160a01b0316816001600160a01b031614935050505092915050565b60006001600160401b03821115611eee5760405162461bcd60e51b815260206004820152602660248201527f53616665436173743a2076616c756520646f65736e27742066697420696e203660448201526534206269747360d01b6064820152608401610251565b606060ff83146121125761210b83612ae7565b9050610e32565b81805461211e90613798565b80601f016020809104026020016040519081016040528092919081815260200182805461214a90613798565b80156121975780601f1061216c57610100808354040283529160200191612197565b820191906000526020600020905b81548152906001019060200180831161217a57829003601f168201915b50505050509050610e32565b600065ffffffffffff821115611eee5760405162461bcd60e51b815260206004820152602660248201527f53616665436173743a2076616c756520646f65736e27742066697420696e203460448201526538206269747360d01b6064820152608401610251565b604051630748d63560e31b81526001600160a01b038481166004830152602482018490526000917f000000000000000000000000000000000000000000000000000000000000000090911690633a46b1a890604401602060405180830381865afa15801561227c573d6000803e3d6000fd5b505050506040513d601f19601f820116820180604052508101906116659190613b3a565b805460009080156122d0576122ba83611f74600184613855565b54600160201b90046001600160e01b0316611668565b60009392505050565b606083156122e8575081611668565b6116688383612b26565b600060646122ff83611074565b604051632394e7a360e21b8152600481018590527f00000000000000000000000000000000000000000000000000000000000000006001600160a01b031690638e539e8c90602401602060405180830381865afa158015612364573d6000803e3d6000fd5b505050506040513d601f19601f820116820180604052508101906123889190613b3a565b6123929190613b53565b610e329190613b80565b6000306001600160a01b037f0000000000000000000000000000000000000000000000000000000000000000161480156123f557507f000000000000000000000000000000000000000000000000000000000000000046145b1561241f57507f000000000000000000000000000000000000000000000000000000000000000090565b611653604080517f8b73c3c69bb8fe3d512ecc4cf759cc79239f7b179b0ffacaa9a75d522b39400f60208201527f0000000000000000000000000000000000000000000000000000000000000000918101919091527f000000000000000000000000000000000000000000000000000000000000000060608201524660808201523060a082015260009060c00160405160208183030381529060405280519060200120905090565b6000807f7fffffffffffffffffffffffffffffff5d576e7357a4501ddfe92f46681b20a08311156124fe5750600090506003612582565b6040805160008082526020820180845289905260ff881692820192909252606081018690526080810185905260019060a0016020604051602081039080840390855afa158015612552573d6000803e3d6000fd5b5050604051601f1901519150506001600160a01b03811661257b57600060019250925050612582565b9150600090505b94509492505050565b600081600481111561259f5761259f613319565b036125a75750565b60018160048111156125bb576125bb613319565b036126085760405162461bcd60e51b815260206004820152601860248201527f45434453413a20696e76616c6964207369676e617475726500000000000000006044820152606401610251565b600281600481111561261c5761261c613319565b036126695760405162461bcd60e51b815260206004820152601f60248201527f45434453413a20696e76616c6964207369676e6174757265206c656e677468006044820152606401610251565b600381600481111561267d5761267d613319565b03610a915760405162461bcd60e51b815260206004820152602260248201527f45434453413a20696e76616c6964207369676e6174757265202773272076616c604482015261756560f01b6064820152608401610251565b60008581526006602090815260408083206001600160a01b0388168452600381019092529091205460ff161561275d5760405162461bcd60e51b815260206004820152602760248201527f476f7665726e6f72566f74696e6753696d706c653a20766f746520616c726561604482015266191e4818d85cdd60ca1b6064820152608401610251565b6001600160a01b03851660009081526003820160205260409020805460ff1916600117905560ff84166127a9578281600001600082825461279e91906138bf565b90915550611bfa9050565b60001960ff8516016127c9578281600101600082825461279e91906138bf565b60011960ff8516016127e9578281600201600082825461279e91906138bf565b60405162461bcd60e51b815260206004820152603560248201527f476f7665726e6f72566f74696e6753696d706c653a20696e76616c69642076616044820152746c756520666f7220656e756d20566f74655479706560581b6064820152608401610251565b60006001600160e01b03821115611eee5760405162461bcd60e51b815260206004820152602760248201527f53616665436173743a2076616c756520646f65736e27742066697420696e20326044820152663234206269747360c81b6064820152608401610251565b6000806128c6858585612b50565b915091505b935093915050565b8154600160801b90819004600f0b6000818152600180860160205260409091209390935583546001600160801b03908116939091011602179055565b60008160000361292157506000919050565b6000600161292e84612cef565b901c6001901b9050600181848161294757612947613b6a565b048201901c9050600181848161295f5761295f613b6a565b048201901c9050600181848161297757612977613b6a565b048201901c9050600181848161298f5761298f613b6a565b048201901c905060018184816129a7576129a7613b6a565b048201901c905060018184816129bf576129bf613b6a565b048201901c905060018184816129d7576129d7613b6a565b048201901c9050611668818285816129f1576129f1613b6a565b04612d83565b60005b81831015612a4d576000612a0e8484612d99565b60008781526020902090915063ffffffff86169082015463ffffffff161115612a3957809250612a47565b612a448160016138bf565b93505b506129fa565b509392505050565b60008060f883901c602f81118015612a705750603a8160ff16105b15612a8557600194602f199091019350915050565b8060ff166040108015612a9b575060478160ff16105b15612ab0576001946036199091019350915050565b8060ff166060108015612ac6575060678160ff16105b15612adb576001946056199091019350915050565b50600093849350915050565b60606000612af483612db4565b604080516020808252818301909252919250600091906020820181803683375050509182525060208101929092525090565b815115612b365781518083602001fd5b8060405162461bcd60e51b81526004016102519190613039565b825460009081908015612c96576000612b6e87611f74600185613855565b60408051808201909152905463ffffffff808216808452600160201b9092046001600160e01b031660208401529192509087161015612bef5760405162461bcd60e51b815260206004820152601b60248201527f436865636b706f696e743a2064656372656173696e67206b65797300000000006044820152606401610251565b805163ffffffff808816911603612c375784612c1088611f74600186613855565b80546001600160e01b0392909216600160201b0263ffffffff909216919091179055612c86565b6040805180820190915263ffffffff80881682526001600160e01b0380881660208085019182528b54600181018d5560008d81529190912094519151909216600160201b029216919091179101555b6020015192508391506128cb9050565b50506040805180820190915263ffffffff80851682526001600160e01b0380851660208085019182528854600181018a5560008a815291822095519251909316600160201b0291909316179201919091559050816128cb565b600080608083901c15612d0457608092831c92015b604083901c15612d1657604092831c92015b602083901c15612d2857602092831c92015b601083901c15612d3a57601092831c92015b600883901c15612d4c57600892831c92015b600483901c15612d5e57600492831c92015b600283901c15612d7057600292831c92015b600183901c15610e325760010192915050565b6000818310612d925781611668565b5090919050565b6000612da86002848418613b80565b611668908484166138bf565b600060ff8216601f811115610e3257604051632cd44ac360e21b815260040160405180910390fd5b600060208284031215612dee57600080fd5b81356001600160e01b03198116811461166857600080fd5b803560ff81168114610ffc57600080fd5b60008083601f840112612e2957600080fd5b5081356001600160401b03811115612e4057600080fd5b602083019150836020828501011115612e5857600080fd5b9250929050565b634e487b7160e01b600052604160045260246000fd5b604051601f8201601f191681016001600160401b0381118282101715612e9d57612e9d612e5f565b604052919050565b60006001600160401b03821115612ebe57612ebe612e5f565b50601f01601f191660200190565b6000612edf612eda84612ea5565b612e75565b9050828152838383011115612ef357600080fd5b828260208301376000602084830101529392505050565b600082601f830112612f1b57600080fd5b61166883833560208501612ecc565b60008060008060008060008060e0898b031215612f4657600080fd5b88359750612f5660208a01612e06565b965060408901356001600160401b0380821115612f7257600080fd5b612f7e8c838d01612e17565b909850965060608b0135915080821115612f9757600080fd5b50612fa48b828c01612f0a565b945050612fb360808a01612e06565b925060a0890135915060c089013590509295985092959890939650565b600060208284031215612fe257600080fd5b5035919050565b60005b83811015613004578181015183820152602001612fec565b50506000910152565b60008151808452613025816020860160208601612fe9565b601f01601f19169290920160200192915050565b602081526000611668602083018461300d565b80356001600160a01b0381168114610ffc57600080fd5b6000806000806080858703121561307957600080fd5b6130828561304c565b93506130906020860161304c565b92506040850135915060608501356001600160401b038111156130b257600080fd5b6130be87828801612f0a565b91505092959194509250565b60006001600160401b038211156130e3576130e3612e5f565b5060051b60200190565b600082601f8301126130fe57600080fd5b8135602061310e612eda836130ca565b8083825260208201915060208460051b87010193508684111561313057600080fd5b602086015b84811015613153576131468161304c565b8352918301918301613135565b509695505050505050565b600082601f83011261316f57600080fd5b8135602061317f612eda836130ca565b8083825260208201915060208460051b8701019350868411156131a157600080fd5b602086015b8481101561315357803583529183019183016131a6565b600082601f8301126131ce57600080fd5b813560206131de612eda836130ca565b82815260059290921b840181019181810190868411156131fd57600080fd5b8286015b848110156131535780356001600160401b038111156132205760008081fd5b61322e8986838b0101612f0a565b845250918301918301613201565b6000806000806080858703121561325257600080fd5b84356001600160401b038082111561326957600080fd5b613275888389016130ed565b9550602087013591508082111561328b57600080fd5b6132978883890161315e565b945060408701359150808211156132ad57600080fd5b506132ba878288016131bd565b949793965093946060013593505050565b600080600080600060a086880312156132e357600080fd5b853594506132f360208701612e06565b935061330160408701612e06565b94979396509394606081013594506080013592915050565b634e487b7160e01b600052602160045260246000fd5b602081016008831061335157634e487b7160e01b600052602160045260246000fd5b91905290565b6000806040838503121561336a57600080fd5b8235915061337a6020840161304c565b90509250929050565b6000806040838503121561339657600080fd5b8235915061337a60208401612e06565b6000806000806000608086880312156133be57600080fd5b853594506133ce60208701612e06565b935060408601356001600160401b03808211156133ea57600080fd5b6133f689838a01612e17565b9095509350606088013591508082111561340f57600080fd5b5061341c88828901612f0a565b9150509295509295909350565b6000806000806060858703121561343f57600080fd5b8435935061344f60208601612e06565b925060408501356001600160401b0381111561346a57600080fd5b61347687828801612e17565b95989497509550505050565b6000806000806080858703121561349857600080fd5b84356001600160401b03808211156134af57600080fd5b6134bb888389016130ed565b955060208701359150808211156134d157600080fd5b6134dd8883890161315e565b945060408701359150808211156134f357600080fd5b6134ff888389016131bd565b9350606087013591508082111561351557600080fd5b508501601f8101871361352757600080fd5b6130be87823560208401612ecc565b60008151808452602080850194506020840160005b838110156135675781518752958201959082019060010161354b565b509495945050505050565b60ff60f81b8816815260e06020820152600061359160e083018961300d565b82810360408401526135a3818961300d565b606084018890526001600160a01b038716608085015260a0840186905283810360c08501529050610a198185613536565b6000806000606084860312156135e957600080fd5b6135f28461304c565b92506020840135915060408401356001600160401b0381111561361457600080fd5b61362086828701612f0a565b9150509250925092565b600080600080600060a0868803121561364257600080fd5b61364b8661304c565b94506136596020870161304c565b935060408601356001600160401b038082111561367557600080fd5b61368189838a0161315e565b9450606088013591508082111561369757600080fd5b6136a389838a0161315e565b9350608088013591508082111561340f57600080fd5b600080600080606085870312156136cf57600080fd5b6136d88561304c565b93506020850135925060408501356001600160401b0381111561346a57600080fd5b6000806040838503121561370d57600080fd5b6137168361304c565b946020939093013593505050565b600080600080600060a0868803121561373c57600080fd5b6137458661304c565b94506137536020870161304c565b9350604086013592506060860135915060808601356001600160401b0381111561377c57600080fd5b61341c88828901612f0a565b8183823760009101908152919050565b600181811c908216806137ac57607f821691505b6020821081036137cc57634e487b7160e01b600052602260045260246000fd5b50919050565b6000602082840312156137e457600080fd5b81516001600160401b038111156137fa57600080fd5b8201601f8101841361380b57600080fd5b8051613819612eda82612ea5565b81815285602083850101111561382e57600080fd5b611d16826020830160208601612fe9565b634e487b7160e01b600052601160045260246000fd5b81810381811115610e3257610e3261383f565b634e487b7160e01b600052603260045260246000fd5b60208082526021908201527f476f7665726e6f723a20696e76616c69642070726f706f73616c206c656e67746040820152600d60fb1b606082015260800190565b80820180821115610e3257610e3261383f565b60008151808452602080850194506020840160005b838110156135675781516001600160a01b0316875295820195908201906001016138e7565b60008282518085526020808601955060208260051b8401016020860160005b8481101561395957601f1986840301895261394783835161300d565b9884019892509083019060010161392b565b5090979650505050505050565b60006101208b8352602060018060a01b038c168185015281604085015261398f8285018c6138d2565b915083820360608501526139a3828b613536565b915083820360808501528189518084528284019150828160051b850101838c0160005b838110156139f457601f198784030185526139e283835161300d565b948601949250908501906001016139c6565b505086810360a0880152613a08818c61390c565b9450505050508560c08401528460e0840152828103610100840152613a2d818561300d565b9c9b505050505050505050505050565b600060208284031215613a4f57600080fd5b815165ffffffffffff8116811461166857600080fd5b608081526000613a7860808301876138d2565b8281036020840152613a8a8187613536565b90508281036040840152613a9e818661390c565b91505082606083015295945050505050565b84815260ff84166020820152826040820152608060608201526000610925608083018461300d565b85815260ff8516602082015283604082015260a060608201526000613b0060a083018561300d565b8281036080840152613b12818561300d565b98975050505050505050565b60008251613b30818460208701612fe9565b9190910192915050565b600060208284031215613b4c57600080fd5b5051919050565b8082028115828204841417610e3257610e3261383f565b634e487b7160e01b600052601260045260246000fd5b600082613b9d57634e487b7160e01b600052601260045260246000fd5b50049056fe476f7665726e6f723a2072656c617920726576657274656420776974686f7574206d657373616765476f7665726e6f723a2063616c6c20726576657274656420776974686f7574206d657373616765a2646970667358221220285188c5bd0cbaca3974a5bd8501fdeec40a0cdd12f97b6ef15a7bfaa3e49f6964736f6c63430008180033",
  "linkReferences": {},
  "deployedLinkReferences": {}
}