{
  "_format": "hh-sol-artifact-1",
  "contractName": "ForgeToken",
  "sourceName": "contracts/ForgeToken.sol",
  "abi": [
    {
      "inputs": [],
      "stateMutability": "nonpayable",
      "type": "constructor"
    },
    {
      "anonymous": false,
      "inputs": [
        {
          "indexed": true,
          "internalType": "address",
          "name": "owner",
          "type": "address"
        },
        {
          "indexed": true,
          "internalType": "address",
          "name": "spender",
          "type": "address"
        },
        {
          "indexed": false,
          "internalType": "uint256",
          "name": "value",
          "type": "uint256"
        }
      ],
      "name": "Approval",
      "type": "event"
    },
    {
      "anonymous": false,
      "inputs": [
        {
          "indexed": true,
          "internalType": "address",
          "name": "previousOwner",
          "type": "address"
        },
        {
          "indexed": true,
          "internalType": "address",
          "name": "newOwner",
          "type": "address"
        }
      ],
      "name": "OwnershipTransferred",
      "type": "event"
    },
    {
      "anonymous": false,
      "inputs": [
        {
          "indexed": true,
          "internalType": "address",
          "name": "to",
          "type": "address"
        },
        {
          "indexed": false,
          "internalType": "uint256",
          "name": "amount",
          "type": "uint256"
        }
      ],
      "name": "TokensMinted",
      "type": "event"
    },
    {
      "anonymous": false,
      "inputs": [
        {
          "indexed": true,
          "internalType": "address",
          "name": "from",
          "type": "address"
        },
        {
          "indexed": true,
          "internalType": "address",
          "name": "to",
          "type": "address"
        },
        {
          "indexed": false,
          "internalType": "uint256",
          "name": "value",
          "type": "uint256"
        }
      ],
      "name": "Transfer",
      "type": "event"
    },
    {
      "inputs": [],
      "name": "INITIAL_SUPPLY",
      "outputs": [
        {
          "internalType": "uint256",
          "name": "",
          "type": "uint256"
        }
      ],
      "stateMutability": "view",
      "type": "function"
    },
    {
      "inputs": [
        {
          "internalType": "address",
          "name": "owner",
          "type": "address"
        },
        {
          "internalType": "address",
          "name": "spender",
          "type": "address"
        }
      ],
      "name": "allowance",
      "outputs": [
        {
          "internalType": "uint256",
          "name": "",
          "type": "uint256"
        }
      ],
      "stateMutability": "view",
      "type": "function"
    },
    {
      "inputs": [
        {
          "internalType": "address",
          "name": "spender",
          "type": "address"
        },
        {
          "internalType": "uint256",
          "name": "amount",
          "type": "uint256"
        }
      ],
      "name": "approve",
      "outputs": [
        {
          "internalType": "bool",
          "name": "",
          "type": "bool"
        }
      ],
      "stateMutability": "nonpayable",
      "type": "function"
    },
    {
      "inputs": [
        {
          "internalType": "address",
          "name": "account",
          "type": "address"
        }
      ],
      "name": "balanceOf",
      "outputs": [
        {
          "internalType": "uint256",
          "name": "",
          "type": "uint256"
        }
      ],
      "stateMutability": "view",
      "type": "function"
    },
    {
      "inputs": [
        {
          "internalType": "address[]",
          "name": "recipients",
          "type": "address[]"
        },
        {
          "internalType": "uint256[]",
          "name": "amounts",
          "type": "uint256[]"
        }
      ],
      "name": "batchMint",
      "outputs": [],
      "stateMutability": "nonpayable",
      "type": "function"
    },
    {
      "inputs": [],
      "name": "decimals",
      "outputs": [
        {
          "internalType": "uint8",
          "name": "",
          "type": "uint8"
        }
      ],
      "stateMutability": "view",
      "type": "function"
    },
    {
      "inputs": [
        {
          "internalType": "address",
          "name": "spender",
          "type": "address"
        },
        {
          "internalType": "uint256",
          "name": "subtractedValue",
          "type": "uint256"
        }
      ],
      "name": "decreaseAllowance",
      "outputs": [
        {
          "internalType": "bool",
          "name": "",
          "type": "bool"
        }
      ],
      "stateMutability": "nonpayable",
      "type": "function"
    },
    {
      "inputs": [
        {
          "internalType": "address",
          "name": "spender",
          "type": "address"
        },
        {
          "internalType": "uint256",
          "name": "addedValue",
          "type": "uint256"
        }
      ],
      "name": "increaseAllowance",
      "outputs": [
        {
          "internalType": "bool",
          "name": "",
          "type": "bool"
        }
      ],
      "stateMutability": "nonpayable",
      "type": "function"
    },
    {
      "inputs": [
        {
          "internalType": "address",
          "name": "to",
          "type": "address"
        },
        {
          "internalType": "uint256",
          "name": "amount",
          "type": "uint256"
        }
      ],
      "name": "mint",
      "outputs": [],
      "stateMutability": "nonpayable",
      "type": "function"
    },
    {
      "inputs": [],
      "name": "name",
      "outputs": [
        {
          "internalType": "string",
          "name": "",
          "type": "string"
        }
      ],
      "stateMutability": "view",
      "type": "function"
    },
    {
      "inputs": [],
      "name": "owner",
      "outputs": [
        {
          "internalType": "address",
          "name": "",
          "type": "address"
        }
      ],
      "stateMutability": "view",
      "type": "function"
    },
    {
      "inputs": [],
      "name": "renounceOwnership",
      "outputs": [],
      "stateMutability": "nonpayable",
      "type": "function"
    },
    {
      "inputs": [],
      "name": "symbol",
      "outputs": [
        {
          "internalType": "string",
          "name": "",
          "type": "string"
        }
      ],
      "stateMutability": "view",
      "type": "function"
    },
    {
      "inputs": [],
      "name": "totalSupply",
      "outputs": [
        {
          "internalType": "uint256",
          "name": "",
          "type": "uint256"
        }
      ],
      "stateMutability": "view",
      "type": "function"
    },
    {
      "inputs": [
        {
          "internalType": "address",
          "name": "to",
          "type": "address"
        },
        {
          "internalType": "uint256",
          "name": "amount",
          "type": "uint256"
        }
      ],
      "name": "transfer",
      "outputs": [
        {
          "internalType": "bool",
          "name": "",
          "type": "bool"
        }
      ],
      "stateMutability": "nonpayable",
      "type": "function"
    },
    {
      "inputs": [
        {
          "internalType": "address",
          "name": "from",
          "type": "address"
        },
        {
          "internalType": "address",
          "name": "to",
          "type": "address"
        },
        {
          "internalType": "uint256",
          "name": "amount",
          "type": "uint256"
        }
      ],
      "name": "transferFrom",
      "outputs": [
        {
          "internalType": "bool",
          "name": "",
          "type": "bool"
        }
      ],
      "stateMutability": "nonpayable",
      "type": "function"
    },
    {
      "inputs": [
        {
          "internalType": "address",
          "name": "newOwner",
          "type": "address"
        }
      ],
      "name": "transferOwnership",
      "outputs": [],
      "stateMutability": "nonpayable",
      "type": "function"
    }
  ],
  "bytecode": "0x60806040523480156200001157600080fd5b506040518060400160405280601081526020016f26b7b232b62337b933b2902a37b5b2b760811b81525060405180604001604052806005815260200164464f52474560d81b81525081600390816200006a919062000277565b50600462000079828262000277565b5050506200009662000090620000b260201b60201c565b620000b6565b620000ac3369d3c21bcecceda100000062000108565b6200036b565b3390565b600580546001600160a01b038381166001600160a01b0319831681179093556040519116919082907f8be0079c531659141344cd1fd0a4f28419497f9722a3daafe3b4186f6b6457e090600090a35050565b6001600160a01b038216620001635760405162461bcd60e51b815260206004820152601f60248201527f45524332303a206d696e7420746f20746865207a65726f206164647265737300604482015260640160405180910390fd5b806002600082825462000177919062000343565b90915550506001600160a01b038216600081815260208181526040808320805486019055518481527fddf252ad1be2c89b69c2b068fc378daa952ba7f163c4a11628f55a4df523b3ef910160405180910390a35050565b505050565b634e487b7160e01b600052604160045260246000fd5b600181811c90821680620001fe57607f821691505b6020821081036200021f57634e487b7160e01b600052602260045260246000fd5b50919050565b601f821115620001ce57600081815260208120601f850160051c810160208610156200024e5750805b601f850160051c820191505b818110156200026f578281556001016200025a565b505050505050565b81516001600160401b03811115620002935762000293620001d3565b620002ab81620002a48454620001e9565b8462000225565b602080601f831160018114620002e35760008415620002ca5750858301515b600019600386901b1c1916600185901b1785556200026f565b600085815260208120601f198616915b828110156200031457888601518255948401946001909101908401620002f3565b5085821015620003335787850151600019600388901b60f8161c191681555b5050505050600190811b01905550565b808201808211156200036557634e487b7160e01b600052601160045260246000fd5b92915050565b610f74806200037b6000396000f3fe608060405234801561001057600080fd5b506004361061010b5760003560e01c806368573107116100a257806395d89b411161007157806395d89b411461021d578063a457c2d714610225578063a9059cbb14610238578063dd62ed3e1461024b578063f2fde38b1461025e57600080fd5b806368573107146101be57806370a08231146101d1578063715018a6146101fa5780638da5cb5b1461020257600080fd5b80632ff2e9dc116100de5780632ff2e9dc14610176578063313ce56714610187578063395093511461019657806340c10f19146101a957600080fd5b806306fdde0314610110578063095ea7b31461012e57806318160ddd1461015157806323b872dd14610163575b600080fd5b610118610271565b6040516101259190610c87565b60405180910390f35b61014161013c366004610cf1565b610303565b6040519015158152602001610125565b6002545b604051908152602001610125565b610141610171366004610d1b565b61031d565b61015569d3c21bcecceda100000081565b60405160128152602001610125565b6101416101a4366004610cf1565b610341565b6101bc6101b7366004610cf1565b610363565b005b6101bc6101cc366004610da3565b610437565b6101556101df366004610e0f565b6001600160a01b031660009081526020819052604090205490565b6101bc61068a565b6005546040516001600160a01b039091168152602001610125565b61011861069e565b610141610233366004610cf1565b6106ad565b610141610246366004610cf1565b610728565b610155610259366004610e31565b610736565b6101bc61026c366004610e0f565b610761565b60606003805461028090610e64565b80601f01602080910402602001604051908101604052809291908181526020018280546102ac90610e64565b80156102f95780601f106102ce576101008083540402835291602001916102f9565b820191906000526020600020905b8154815290600101906020018083116102dc57829003601f168201915b5050505050905090565b6000336103118185856107da565b60019150505b92915050565b60003361032b8582856108fe565b610336858585610978565b506001949350505050565b6000336103118185856103548383610736565b61035e9190610eb4565b6107da565b61036b610b1c565b6001600160a01b0382166103c65760405162461bcd60e51b815260206004820181905260248201527f466f726765546f6b656e3a206d696e7420746f207a65726f206164647265737360448201526064015b60405180910390fd5b600081116103e65760405162461bcd60e51b81526004016103bd90610ec7565b6103f08282610b76565b816001600160a01b03167f3f2c9d57c068687834f0de942a9babb9e5acab57d516d3480a3c16ee165a42738260405161042b91815260200190565b60405180910390a25050565b61043f610b1c565b8281146104995760405162461bcd60e51b815260206004820152602260248201527f466f726765546f6b656e3a20617272617973206c656e677468206d69736d61746044820152610c6d60f31b60648201526084016103bd565b826104e65760405162461bcd60e51b815260206004820152601860248201527f466f726765546f6b656e3a20656d70747920617272617973000000000000000060448201526064016103bd565b60005b8381101561068357600085858381811061050557610505610f0f565b905060200201602081019061051a9190610e0f565b6001600160a01b0316036105705760405162461bcd60e51b815260206004820181905260248201527f466f726765546f6b656e3a206d696e7420746f207a65726f206164647265737360448201526064016103bd565b600083838381811061058457610584610f0f565b90506020020135116105a85760405162461bcd60e51b81526004016103bd90610ec7565b6105f08585838181106105bd576105bd610f0f565b90506020020160208101906105d29190610e0f565b8484848181106105e4576105e4610f0f565b90506020020135610b76565b84848281811061060257610602610f0f565b90506020020160208101906106179190610e0f565b6001600160a01b03167f3f2c9d57c068687834f0de942a9babb9e5acab57d516d3480a3c16ee165a427384848481811061065357610653610f0f565b9050602002013560405161066991815260200190565b60405180910390a28061067b81610f25565b9150506104e9565b5050505050565b610692610b1c565b61069c6000610c35565b565b60606004805461028090610e64565b600033816106bb8286610736565b90508381101561071b5760405162461bcd60e51b815260206004820152602560248201527f45524332303a2064656372656173656420616c6c6f77616e63652062656c6f77604482015264207a65726f60d81b60648201526084016103bd565b61033682868684036107da565b600033610311818585610978565b6001600160a01b03918216600090815260016020908152604080832093909416825291909152205490565b610769610b1c565b6001600160a01b0381166107ce5760405162461bcd60e51b815260206004820152602660248201527f4f776e61626c653a206e6577206f776e657220697320746865207a65726f206160448201526564647265737360d01b60648201526084016103bd565b6107d781610c35565b50565b6001600160a01b03831661083c5760405162461bcd60e51b8152602060048201526024808201527f45524332303a20617070726f76652066726f6d20746865207a65726f206164646044820152637265737360e01b60648201526084016103bd565b6001600160a01b03821661089d5760405162461bcd60e51b815260206004820152602260248201527f45524332303a20617070726f766520746f20746865207a65726f206164647265604482015261737360f01b60648201526084016103bd565b6001600160a01b0383811660008181526001602090815260408083209487168084529482529182902085905590518481527f8c5be1e5ebec7d5bd14f71427d1e84f3dd0314c0f7b2291e5b200ac8c7c3b925910160405180910390a3505050565b600061090a8484610736565b9050600019811461097257818110156109655760405162461bcd60e51b815260206004820152601d60248201527f45524332303a20696e73756666696369656e7420616c6c6f77616e636500000060448201526064016103bd565b61097284848484036107da565b50505050565b6001600160a01b0383166109dc5760405162461bcd60e51b815260206004820152602560248201527f45524332303a207472616e736665722066726f6d20746865207a65726f206164604482015264647265737360d81b60648201526084016103bd565b6001600160a01b038216610a3e5760405162461bcd60e51b815260206004820152602360248201527f45524332303a207472616e7366657220746f20746865207a65726f206164647260448201526265737360e81b60648201526084016103bd565b6001600160a01b03831660009081526020819052604090205481811015610ab65760405162461bcd60e51b815260206004820152602660248201527f45524332303a207472616e7366657220616d6f756e7420657863656564732062604482015265616c616e636560d01b60648201526084016103bd565b6001600160a01b03848116600081815260208181526040808320878703905593871680835291849020805487019055925185815290927fddf252ad1be2c89b69c2b068fc378daa952ba7f163c4a11628f55a4df523b3ef910160405180910390a3610972565b6005546001600160a01b0316331461069c5760405162461bcd60e51b815260206004820181905260248201527f4f776e61626c653a2063616c6c6572206973206e6f7420746865206f776e657260448201526064016103bd565b6001600160a01b038216610bcc5760405162461bcd60e51b815260206004820152601f60248201527f45524332303a206d696e7420746f20746865207a65726f20616464726573730060448201526064016103bd565b8060026000828254610bde9190610eb4565b90915550506001600160a01b038216600081815260208181526040808320805486019055518481527fddf252ad1be2c89b69c2b068fc378daa952ba7f163c4a11628f55a4df523b3ef910160405180910390a35050565b600580546001600160a01b038381166001600160a01b0319831681179093556040519116919082907f8be0079c531659141344cd1fd0a4f28419497f9722a3daafe3b4186f6b6457e090600090a35050565b600060208083528351808285015260005b81811015610cb457858101830151858201604001528201610c98565b506000604082860101526040601f19601f8301168501019250505092915050565b80356001600160a01b0381168114610cec57600080fd5b919050565b60008060408385031215610d0457600080fd5b610d0d83610cd5565b946020939093013593505050565b600080600060608486031215610d3057600080fd5b610d3984610cd5565b9250610d4760208501610cd5565b9150604084013590509250925092565b60008083601f840112610d6957600080fd5b50813567ffffffffffffffff811115610d8157600080fd5b6020830191508360208260051b8501011115610d9c57600080fd5b9250929050565b60008060008060408587031215610db957600080fd5b843567ffffffffffffffff80821115610dd157600080fd5b610ddd88838901610d57565b90965094506020870135915080821115610df657600080fd5b50610e0387828801610d57565b95989497509550505050565b600060208284031215610e2157600080fd5b610e2a82610cd5565b9392505050565b60008060408385031215610e4457600080fd5b610e4d83610cd5565b9150610e5b60208401610cd5565b90509250929050565b600181811c90821680610e7857607f821691505b602082108103610e9857634e487b7160e01b600052602260045260246000fd5b50919050565b634e487b7160e01b600052601160045260246000fd5b8082018082111561031757610317610e9e565b60208082526028908201527f466f726765546f6b656e3a206d696e7420616d6f756e74206d75737420626520604082015267706f73697469766560c01b606082015260800190565b634e487b7160e01b600052603260045260246000fd5b600060018201610f3757610f37610e9e565b506001019056fea2646970667358221220b03ce7bb6431f1c152d967d5ae5bce75b07fe1967855840cb9f4c408685346de64736f6c63430008140033",
  "linkReferences": {},
  "deployedLinkReferences": {}
}