{
  "_format": "hh-sol-artifact-1",
  "contractName": "OrbSwapRouter",
  "sourceName": "contracts/OrbSwapRouter.sol",
  "abi": [
    {
      "inputs": [
        {
          "internalType": "address",
          "name": "_weth",
          "type": "address"
        },
        {
          "internalType": "address",
          "name": "_pool",
          "type": "address"
        }
      ],
      "stateMutability": "nonpayable",
      "type": "constructor"
    },
    {
      "inputs": [],
      "name": "ReentrancyGuardReentrantCall",
      "type": "error"
    },
    {
      "inputs": [],
      "name": "ZeroValue",
      "type": "error"
    },
    {
      "inputs": [],
      "name": "pool",
      "outputs": [
        {
          "internalType": "contract OrbPool",
          "name": "",
          "type": "address"
        }
      ],
      "stateMutability": "view",
      "type": "function"
    },
    {
      "inputs": [
        {
          "internalType": "uint256",
          "name": "amountOutMinimum",
          "type": "uint256"
        }
      ],
      "name": "swapExactETHForTokens",
      "outputs": [
        {
          "internalType": "uint256",
          "name": "amountOut",
          "type": "uint256"
        }
      ],
      "stateMutability": "payable",
      "type": "function"
    },
    {
      "inputs": [],
      "name": "weth",
      "outputs": [
        {
          "internalType": "contract IWETH",
          "name": "",
          "type": "address"
        }
      ],
      "stateMutability": "view",
      "type": "function"
    }
  ],
  "bytecode": "0x60c060405234801561001057600080fd5b5060405161051138038061051183398101604081905261002f91610086565b60017f9b779b17422d0df92223018b32b4d1fa46e071723d6817e2486d003becc55f00556001600160a01b039182166080521660a0526100b9565b80516001600160a01b038116811461008157600080fd5b919050565b6000806040838503121561009957600080fd5b6100a28361006a565b91506100b06020840161006a565b90509250929050565b60805160a0516104196100f860003960008181604b01528181610192015261026501526000818160bd0152818161010c01526101c001526104196000f3fe6080604052600436106100345760003560e01c806316f0115b146100395780631dc437b11461008a5780633fc8cef3146100ab575b600080fd5b34801561004557600080fd5b5061006d7f000000000000000000000000000000000000000000000000000000000000000081565b6040516001600160a01b0390911681526020015b60405180910390f35b61009d61009836600461037d565b6100df565b604051908152602001610081565b3480156100b757600080fd5b5061006d7f000000000000000000000000000000000000000000000000000000000000000081565b60006100e961030b565b3460000361010a57604051637c946ed760e01b815260040160405180910390fd5b7f00000000000000000000000000000000000000000000000000000000000000006001600160a01b031663d0e30db0346040518263ffffffff1660e01b81526004016000604051808303818588803b15801561016557600080fd5b505af1158015610179573d6000803e3d6000fd5b505060405163095ea7b360e01b81526001600160a01b037f0000000000000000000000000000000000000000000000000000000000000000811660048301523460248301527f000000000000000000000000000000000000000000000000000000000000000016935063095ea7b3925060440190506020604051808303816000875af115801561020d573d6000803e3d6000fd5b505050506040513d601f19601f820116820180604052508101906102319190610396565b5060405163562e19df60e01b81523460048201526000602482018190526044820184905260648201819052336084830152907f00000000000000000000000000000000000000000000000000000000000000006001600160a01b03169063562e19df9060a40160408051808303816000875af11580156102b5573d6000803e3d6000fd5b505050506040513d601f19601f820116820180604052508101906102d991906103bf565b5091505061030660017f9b779b17422d0df92223018b32b4d1fa46e071723d6817e2486d003becc55f0055565b919050565b610313610339565b60027f9b779b17422d0df92223018b32b4d1fa46e071723d6817e2486d003becc55f0055565b7f9b779b17422d0df92223018b32b4d1fa46e071723d6817e2486d003becc55f005460020361037b57604051633ee5aeb560e01b815260040160405180910390fd5b565b60006020828403121561038f57600080fd5b5035919050565b6000602082840312156103a857600080fd5b815180151581146103b857600080fd5b9392505050565b600080604083850312156103d257600080fd5b50508051602090910151909290915056fea2646970667358221220bf4cca288fdf09f0a88efb58484aa9489576ce2cab9dcd708ec52acddbbbba4364736f6c63430008140033",
  "linkReferences": {},
  "deployedLinkReferences": {}
}