{
  "_format": "hh-sol-artifact-1",
  "contractName": "EvalisCertificate",
  "sourceName": "contracts/EvalisCertificate.sol",
  "abi": [
    {
      "inputs": [],
      "stateMutability": "nonpayable",
      "type": "constructor"
    },
    {
      "anonymous": false,
      "inputs": [
        {
          "indexed": true,
          "internalType": "address",
          "name": "owner",
          "type": "address"
        },
        {
          "indexed": true,
          "internalType": "address",
          "name": "approved",
          "type": "address"
        },
        {
          "indexed": true,
          "internalType": "uint256",
          "name": "tokenId",
          "type": "uint256"
        }
      ],
      "name": "Approval",
      "type": "event"
    },
    {
      "anonymous": false,
      "inputs": [
        {
          "indexed": true,
          "internalType": "address",
          "name": "owner",
          "type": "address"
        },
        {
          "indexed": true,
          "internalType": "address",
          "name": "operator",
          "type": "address"
        },
        {
          "indexed": false,
          "internalType": "bool",
          "name": "approved",
          "type": "bool"
        }
      ],
      "name": "ApprovalForAll",
      "type": "event"
    },
    {
      "anonymous": false,
      "inputs": [
        {
          "indexed": false,
          "internalType": "uint256",
          "name": "_fromTokenId",
          "type": "uint256"
        },
        {
          "indexed": false,
          "internalType": "uint256",
          "name": "_toTokenId",
          "type": "uint256"
        }
      ],
      "name": "BatchMetadataUpdate",
      "type": "event"
    },
    {
      "anonymous": false,
      "inputs": [
        {
          "indexed": false,
          "internalType": "uint256",
          "name": "_tokenId",
          "type": "uint256"
        }
      ],
      "name": "MetadataUpdate",
      "type": "event"
    },
    {
      "anonymous": false,
      "inputs": [
        {
          "indexed": true,
          "internalType": "address",
          "name": "previousOwner",
          "type": "address"
        },
        {
          "indexed": true,
          "internalType": "address",
          "name": "newOwner",
          "type": "address"
        }
      ],
      "name": "OwnershipTransferred",
      "type": "event"
    },
    {
      "anonymous": false,
      "inputs": [
        {
          "indexed": true,
          "internalType": "address",
          "name": "from",
          "type": "address"
        },
        {
          "indexed": true,
          "internalType": "address",
          "name": "to",
          "type": "address"
        },
        {
          "indexed": true,
          "internalType": "uint256",
          "name": "tokenId",
          "type": "uint256"
        }
      ],
      "name": "Transfer",
      "type": "event"
    },
    {
      "inputs": [
        {
          "internalType": "address",
          "name": "to",
          "type": "address"
        },
        {
          "internalType": "uint256",
          "name": "tokenId",
          "type": "uint256"
        }
      ],
      "name": "approve",
      "outputs": [],
      "stateMutability": "nonpayable",
      "type": "function"
    },
    {
      "inputs": [
        {
          "internalType": "address",
          "name": "owner",
          "type": "address"
        }
      ],
      "name": "balanceOf",
      "outputs": [
        {
          "internalType": "uint256",
          "name": "",
          "type": "uint256"
        }
      ],
      "stateMutability": "view",
      "type": "function"
    },
    {
      "inputs": [
        {
          "internalType": "uint256",
          "name": "tokenId",
          "type": "uint256"
        }
      ],
      "name": "getApproved",
      "outputs": [
        {
          "internalType": "address",
          "name": "",
          "type": "address"
        }
      ],
      "stateMutability": "view",
      "type": "function"
    },
    {
      "inputs": [
        {
          "internalType": "address",
          "name": "owner",
          "type": "address"
        },
        {
          "internalType": "address",
          "name": "operator",
          "type": "address"
        }
      ],
      "name": "isApprovedForAll",
      "outputs": [
        {
          "internalType": "bool",
          "name": "",
          "type": "bool"
        }
      ],
      "stateMutability": "view",
      "type": "function"
    },
    {
      "inputs": [
        {
          "internalType": "address",
          "name": "to",
          "type": "address"
        },
        {
          "internalType": "string",
          "name": "tokenUri",
          "type": "string"
        }
      ],
      "name": "mintTo",
      "outputs": [
        {
          "internalType": "uint256",
          "name": "",
          "type": "uint256"
        }
      ],
      "stateMutability": "nonpayable",
      "type": "function"
    },
    {
      "inputs": [],
      "name": "name",
      "outputs": [
        {
          "internalType": "string",
          "name": "",
          "type": "string"
        }
      ],
      "stateMutability": "view",
      "type": "function"
    },
    {
      "inputs": [],
      "name": "owner",
      "outputs": [
        {
          "internalType": "address",
          "name": "",
          "type": "address"
        }
      ],
      "stateMutability": "view",
      "type": "function"
    },
    {
      "inputs": [
        {
          "internalType": "uint256",
          "name": "tokenId",
          "type": "uint256"
        }
      ],
      "name": "ownerOf",
      "outputs": [
        {
          "internalType": "address",
          "name": "",
          "type": "address"
        }
      ],
      "stateMutability": "view",
      "type": "function"
    },
    {
      "inputs": [],
      "name": "renounceOwnership",
      "outputs": [],
      "stateMutability": "nonpayable",
      "type": "function"
    },
    {
      "inputs": [
        {
          "internalType": "address",
          "name": "from",
          "type": "address"
        },
        {
          "internalType": "address",
          "name": "to",
          "type": "address"
        },
        {
          "internalType": "uint256",
          "name": "tokenId",
          "type": "uint256"
        }
      ],
      "name": "safeTransferFrom",
      "outputs": [],
      "stateMutability": "nonpayable",
      "type": "function"
    },
    {
      "inputs": [
        {
          "internalType": "address",
          "name": "from",
          "type": "address"
        },
        {
          "internalType": "address",
          "name": "to",
          "type": "address"
        },
        {
          "internalType": "uint256",
          "name": "tokenId",
          "type": "uint256"
        },
        {
          "internalType": "bytes",
          "name": "data",
          "type": "bytes"
        }
      ],
      "name": "safeTransferFrom",
      "outputs": [],
      "stateMutability": "nonpayable",
      "type": "function"
    },
    {
      "inputs": [
        {
          "internalType": "address",
          "name": "operator",
          "type": "address"
        },
        {
          "internalType": "bool",
          "name": "approved",
          "type": "bool"
        }
      ],
      "name": "setApprovalForAll",
      "outputs": [],
      "stateMutability": "nonpayable",
      "type": "function"
    },
    {
      "inputs": [
        {
          "internalType": "bytes4",
          "name": "interfaceId",
          "type": "bytes4"
        }
      ],
      "name": "supportsInterface",
      "outputs": [
        {
          "internalType": "bool",
          "name": "",
          "type": "bool"
        }
      ],
      "stateMutability": "view",
      "type": "function"
    },
    {
      "inputs": [],
      "name": "symbol",
      "outputs": [
        {
          "internalType": "string",
          "name": "",
          "type": "string"
        }
      ],
      "stateMutability": "view",
      "type": "function"
    },
    {
      "inputs": [
        {
          "internalType": "uint256",
          "name": "tokenId",
          "type": "uint256"
        }
      ],
      "name": "tokenURI",
      "outputs": [
        {
          "internalType": "string",
          "name": "",
          "type": "string"
        }
      ],
      "stateMutability": "view",
      "type": "function"
    },
    {
      "inputs": [
        {
          "internalType": "address",
          "name": "from",
          "type": "address"
        },
        {
          "internalType": "address",
          "name": "to",
          "type": "address"
        },
        {
          "internalType": "uint256",
          "name": "tokenId",
          "type": "uint256"
        }
      ],
      "name": "transferFrom",
      "outputs": [],
      "stateMutability": "nonpayable",
      "type": "function"
    },
    {
      "inputs": [
        {
          "internalType": "address",
          "name": "newOwner",
          "type": "address"
        }
      ],
      "name": "transferOwnership",
      "outputs": [],
      "stateMutability": "nonpayable",
      "type": "function"
    }
  ],
  "bytecode": "0x60806040523480156200001157600080fd5b50604051806040016040528060128152602001714576616c697320436572746966696361746560701b8152506040518060400160405280600481526020016345564c4360e01b81525081600090816200006b91906200019a565b5060016200007a82826200019a565b50505062000097620000916200009d60201b60201c565b620000a1565b62000266565b3390565b600780546001600160a01b038381166001600160a01b0319831681179093556040519116919082907f8be0079c531659141344cd1fd0a4f28419497f9722a3daafe3b4186f6b6457e090600090a35050565b634e487b7160e01b600052604160045260246000fd5b600181811c908216806200011e57607f821691505b6020821081036200013f57634e487b7160e01b600052602260045260246000fd5b50919050565b601f82111562000195576000816000526020600020601f850160051c81016020861015620001705750805b601f850160051c820191505b8181101562000191578281556001016200017c565b5050505b505050565b81516001600160401b03811115620001b657620001b6620000f3565b620001ce81620001c7845462000109565b8462000145565b602080601f831160018114620002065760008415620001ed5750858301515b600019600386901b1c1916600185901b17855562000191565b600085815260208120601f198616915b82811015620002375788860151825594840194600190910190840162000216565b5085821015620002565787850151600019600388901b60f8161c191681555b5050505050600190811b01905550565b61186980620002766000396000f3fe608060405234801561001057600080fd5b506004361061010a5760003560e01c806370a08231116100a2578063a22cb46511610071578063a22cb4651461021a578063b88d4fde1461022d578063c87b56dd14610240578063e985e9c514610253578063f2fde38b1461028f57600080fd5b806370a08231146101e6578063715018a6146101f95780638da5cb5b1461020157806395d89b411461021257600080fd5b8063095ea7b3116100de578063095ea7b31461019857806323b872dd146101ad57806342842e0e146101c05780636352211e146101d357600080fd5b806275a3171461010f57806301ffc9a71461013557806306fdde0314610158578063081812fc1461016d575b600080fd5b61012261011d3660046112d8565b6102a2565b6040519081526020015b60405180910390f35b610148610143366004611350565b6102df565b604051901515815260200161012c565b61016061030a565b60405161012c91906113bd565b61018061017b3660046113d0565b61039c565b6040516001600160a01b03909116815260200161012c565b6101ab6101a63660046113e9565b6103c3565b005b6101ab6101bb366004611413565b6104dd565b6101ab6101ce366004611413565b61050e565b6101806101e13660046113d0565b610529565b6101226101f436600461144f565b610589565b6101ab61060f565b6007546001600160a01b0316610180565b610160610623565b6101ab61022836600461146a565b610632565b6101ab61023b3660046114a6565b610641565b61016061024e3660046113d0565b610679565b610148610261366004611522565b6001600160a01b03918216600090815260056020908152604080832093909416825291909152205460ff1690565b6101ab61029d36600461144f565b610789565b60006102ac610802565b60006008600081546102bd90611555565b918290555090506102ce848261085c565b6102d88184610876565b9392505050565b60006001600160e01b03198216632483248360e11b1480610304575061030482610941565b92915050565b6060600080546103199061157c565b80601f01602080910402602001604051908101604052809291908181526020018280546103459061157c565b80156103925780601f1061036757610100808354040283529160200191610392565b820191906000526020600020905b81548152906001019060200180831161037557829003601f168201915b5050505050905090565b60006103a782610991565b506000908152600460205260409020546001600160a01b031690565b60006103ce82610529565b9050806001600160a01b0316836001600160a01b0316036104405760405162461bcd60e51b815260206004820152602160248201527f4552433732313a20617070726f76616c20746f2063757272656e74206f776e656044820152603960f91b60648201526084015b60405180910390fd5b336001600160a01b038216148061045c575061045c8133610261565b6104ce5760405162461bcd60e51b815260206004820152603d60248201527f4552433732313a20617070726f76652063616c6c6572206973206e6f7420746f60448201527f6b656e206f776e6572206f7220617070726f76656420666f7220616c6c0000006064820152608401610437565b6104d883836109f0565b505050565b6104e73382610a5e565b6105035760405162461bcd60e51b8152600401610437906115b6565b6104d8838383610adc565b6104d883838360405180602001604052806000815250610641565b6000818152600260205260408120546001600160a01b0316806103045760405162461bcd60e51b8152602060048201526018602482015277115490cdcc8c4e881a5b9d985b1a59081d1bdad95b88125160421b6044820152606401610437565b60006001600160a01b0382166105f35760405162461bcd60e51b815260206004820152602960248201527f4552433732313a2061646472657373207a65726f206973206e6f7420612076616044820152683634b21037bbb732b960b91b6064820152608401610437565b506001600160a01b031660009081526003602052604090205490565b610617610802565b6106216000610c40565b565b6060600180546103199061157c565b61063d338383610c92565b5050565b61064b3383610a5e565b6106675760405162461bcd60e51b8152600401610437906115b6565b61067384848484610d60565b50505050565b606061068482610991565b6000828152600660205260408120805461069d9061157c565b80601f01602080910402602001604051908101604052809291908181526020018280546106c99061157c565b80156107165780601f106106eb57610100808354040283529160200191610716565b820191906000526020600020905b8154815290600101906020018083116106f957829003601f168201915b50505050509050600061073460408051602081019091526000815290565b90508051600003610746575092915050565b815115610778578082604051602001610760929190611603565b60405160208183030381529060405292505050919050565b61078184610d93565b949350505050565b610791610802565b6001600160a01b0381166107f65760405162461bcd60e51b815260206004820152602660248201527f4f776e61626c653a206e6577206f776e657220697320746865207a65726f206160448201526564647265737360d01b6064820152608401610437565b6107ff81610c40565b50565b6007546001600160a01b031633146106215760405162461bcd60e51b815260206004820181905260248201527f4f776e61626c653a2063616c6c6572206973206e6f7420746865206f776e65726044820152606401610437565b61063d828260405180602001604052806000815250610e06565b6000828152600260205260409020546001600160a01b03166108f15760405162461bcd60e51b815260206004820152602e60248201527f45524337323155524953746f726167653a2055524920736574206f66206e6f6e60448201526d32bc34b9ba32b73a103a37b5b2b760911b6064820152608401610437565b60008281526006602052604090206109098282611682565b506040518281527ff8e1a15aba9398e019f0b49df1a4fde98ee17ae345cb5f6b5e2c27f5033e8ce79060200160405180910390a15050565b60006001600160e01b031982166380ac58cd60e01b148061097257506001600160e01b03198216635b5e139f60e01b145b8061030457506301ffc9a760e01b6001600160e01b0319831614610304565b6000818152600260205260409020546001600160a01b03166107ff5760405162461bcd60e51b8152602060048201526018602482015277115490cdcc8c4e881a5b9d985b1a59081d1bdad95b88125160421b6044820152606401610437565b600081815260046020526040902080546001600160a01b0319166001600160a01b0384169081179091558190610a2582610529565b6001600160a01b03167f8c5be1e5ebec7d5bd14f71427d1e84f3dd0314c0f7b2291e5b200ac8c7c3b92560405160405180910390a45050565b600080610a6a83610529565b9050806001600160a01b0316846001600160a01b03161480610ab157506001600160a01b0380821660009081526005602090815260408083209388168352929052205460ff165b806107815750836001600160a01b0316610aca8461039c565b6001600160a01b031614949350505050565b826001600160a01b0316610aef82610529565b6001600160a01b031614610b155760405162461bcd60e51b815260040161043790611742565b6001600160a01b038216610b775760405162461bcd60e51b8152602060048201526024808201527f4552433732313a207472616e7366657220746f20746865207a65726f206164646044820152637265737360e01b6064820152608401610437565b826001600160a01b0316610b8a82610529565b6001600160a01b031614610bb05760405162461bcd60e51b815260040161043790611742565b600081815260046020908152604080832080546001600160a01b03199081169091556001600160a01b0387811680865260038552838620805460001901905590871680865283862080546001019055868652600290945282852080549092168417909155905184937fddf252ad1be2c89b69c2b068fc378daa952ba7f163c4a11628f55a4df523b3ef91a4505050565b600780546001600160a01b038381166001600160a01b0319831681179093556040519116919082907f8be0079c531659141344cd1fd0a4f28419497f9722a3daafe3b4186f6b6457e090600090a35050565b816001600160a01b0316836001600160a01b031603610cf35760405162461bcd60e51b815260206004820152601960248201527f4552433732313a20617070726f766520746f2063616c6c6572000000000000006044820152606401610437565b6001600160a01b03838116600081815260056020908152604080832094871680845294825291829020805460ff191686151590811790915591519182527f17307eab39ab6107e8899845ad3d59bd9653f200f220920489ca2b5937696c31910160405180910390a3505050565b610d6b848484610adc565b610d7784848484610e39565b6106735760405162461bcd60e51b815260040161043790611787565b6060610d9e82610991565b6000610db560408051602081019091526000815290565b90506000815111610dd557604051806020016040528060008152506102d8565b80610ddf84610f3a565b604051602001610df0929190611603565b6040516020818303038152906040529392505050565b610e108383610fcd565b610e1d6000848484610e39565b6104d85760405162461bcd60e51b815260040161043790611787565b60006001600160a01b0384163b15610f2f57604051630a85bd0160e11b81526001600160a01b0385169063150b7a0290610e7d9033908990889088906004016117d9565b6020604051808303816000875af1925050508015610eb8575060408051601f3d908101601f19168201909252610eb591810190611816565b60015b610f15573d808015610ee6576040519150601f19603f3d011682016040523d82523d6000602084013e610eeb565b606091505b508051600003610f0d5760405162461bcd60e51b815260040161043790611787565b805181602001fd5b6001600160e01b031916630a85bd0160e11b149050610781565b506001949350505050565b60606000610f4783611158565b600101905060008167ffffffffffffffff811115610f6757610f6761124c565b6040519080825280601f01601f191660200182016040528015610f91576020820181803683370190505b5090508181016020015b600019016f181899199a1a9b1b9c1cb0b131b232b360811b600a86061a8153600a8504945084610f9b57509392505050565b6001600160a01b0382166110235760405162461bcd60e51b815260206004820181905260248201527f4552433732313a206d696e7420746f20746865207a65726f20616464726573736044820152606401610437565b6000818152600260205260409020546001600160a01b0316156110885760405162461bcd60e51b815260206004820152601c60248201527f4552433732313a20746f6b656e20616c7265616479206d696e746564000000006044820152606401610437565b6000818152600260205260409020546001600160a01b0316156110ed5760405162461bcd60e51b815260206004820152601c60248201527f4552433732313a20746f6b656e20616c7265616479206d696e746564000000006044820152606401610437565b6001600160a01b038216600081815260036020908152604080832080546001019055848352600290915280822080546001600160a01b0319168417905551839291907fddf252ad1be2c89b69c2b068fc378daa952ba7f163c4a11628f55a4df523b3ef908290a45050565b60008072184f03e93ff9f4daa797ed6e38ed64bf6a1f0160401b83106111975772184f03e93ff9f4daa797ed6e38ed64bf6a1f0160401b830492506040015b6d04ee2d6d415b85acef810000000083106111c3576d04ee2d6d415b85acef8100000000830492506020015b662386f26fc1000083106111e157662386f26fc10000830492506010015b6305f5e10083106111f9576305f5e100830492506008015b612710831061120d57612710830492506004015b6064831061121f576064830492506002015b600a83106103045760010192915050565b80356001600160a01b038116811461124757600080fd5b919050565b634e487b7160e01b600052604160045260246000fd5b600067ffffffffffffffff8084111561127d5761127d61124c565b604051601f8501601f19908116603f011681019082821181831017156112a5576112a561124c565b816040528093508581528686860111156112be57600080fd5b858560208301376000602087830101525050509392505050565b600080604083850312156112eb57600080fd5b6112f483611230565b9150602083013567ffffffffffffffff81111561131057600080fd5b8301601f8101851361132157600080fd5b61133085823560208401611262565b9150509250929050565b6001600160e01b0319811681146107ff57600080fd5b60006020828403121561136257600080fd5b81356102d88161133a565b60005b83811015611388578181015183820152602001611370565b50506000910152565b600081518084526113a981602086016020860161136d565b601f01601f19169290920160200192915050565b6020815260006102d86020830184611391565b6000602082840312156113e257600080fd5b5035919050565b600080604083850312156113fc57600080fd5b61140583611230565b946020939093013593505050565b60008060006060848603121561142857600080fd5b61143184611230565b925061143f60208501611230565b9150604084013590509250925092565b60006020828403121561146157600080fd5b6102d882611230565b6000806040838503121561147d57600080fd5b61148683611230565b91506020830135801515811461149b57600080fd5b809150509250929050565b600080600080608085870312156114bc57600080fd5b6114c585611230565b93506114d360208601611230565b925060408501359150606085013567ffffffffffffffff8111156114f657600080fd5b8501601f8101871361150757600080fd5b61151687823560208401611262565b91505092959194509250565b6000806040838503121561153557600080fd5b61153e83611230565b915061154c60208401611230565b90509250929050565b60006001820161157557634e487b7160e01b600052601160045260246000fd5b5060010190565b600181811c9082168061159057607f821691505b6020821081036115b057634e487b7160e01b600052602260045260246000fd5b50919050565b6020808252602d908201527f4552433732313a2063616c6c6572206973206e6f7420746f6b656e206f776e6560408201526c1c881bdc88185c1c1c9bdd9959609a1b606082015260800190565b6000835161161581846020880161136d565b83519083019061162981836020880161136d565b01949350505050565b601f8211156104d8576000816000526020600020601f850160051c8101602086101561165b5750805b601f850160051c820191505b8181101561167a57828155600101611667565b505050505050565b815167ffffffffffffffff81111561169c5761169c61124c565b6116b0816116aa845461157c565b84611632565b602080601f8311600181146116e557600084156116cd5750858301515b600019600386901b1c1916600185901b17855561167a565b600085815260208120601f198616915b82811015611714578886015182559484019460019091019084016116f5565b50858210156117325787850151600019600388901b60f8161c191681555b5050505050600190811b01905550565b60208082526025908201527f4552433732313a207472616e736665722066726f6d20696e636f72726563742060408201526437bbb732b960d91b606082015260800190565b60208082526032908201527f4552433732313a207472616e7366657220746f206e6f6e20455243373231526560408201527131b2b4bb32b91034b6b83632b6b2b73a32b960711b606082015260800190565b6001600160a01b038581168252841660208201526040810183905260806060820181905260009061180c90830184611391565b9695505050505050565b60006020828403121561182857600080fd5b81516102d88161133a56fea264697066735822122020bda4f98938a484a9b79d4835b86faaea126d8febfe560de09ac7409cfa692464736f6c63430008180033",
  "linkReferences": {},
  "deployedLinkReferences": {}
}