{
  "_format": "hh-sol-artifact-1",
  "contractName": "TaskManager",
  "sourceName": "contracts/TaskManager.sol",
  "abi": [
    {
      "inputs": [
        {
          "internalType": "address",
          "name": "_USDC",
          "type": "address"
        }
      ],
      "stateMutability": "nonpayable",
      "type": "constructor"
    },
    {
      "inputs": [
        {
          "internalType": "address",
          "name": "owner",
          "type": "address"
        }
      ],
      "name": "OwnableInvalidOwner",
      "type": "error"
    },
    {
      "inputs": [
        {
          "internalType": "address",
          "name": "account",
          "type": "address"
        }
      ],
      "name": "OwnableUnauthorizedAccount",
      "type": "error"
    },
    {
      "inputs": [],
      "name": "task__bountyUSDCBalanceLow",
      "type": "error"
    },
    {
      "inputs": [],
      "name": "task__executorError",
      "type": "error"
    },
    {
      "inputs": [],
      "name": "task__ownerError",
      "type": "error"
    },
    {
      "inputs": [],
      "name": "task__timeout",
      "type": "error"
    },
    {
      "anonymous": false,
      "inputs": [
        {
          "indexed": true,
          "internalType": "address",
          "name": "owner",
          "type": "address"
        },
        {
          "indexed": true,
          "internalType": "address",
          "name": "executor",
          "type": "address"
        },
        {
          "indexed": true,
          "internalType": "uint256",
          "name": "index",
          "type": "uint256"
        }
      ],
      "name": "FinishTask",
      "type": "event"
    },
    {
      "anonymous": false,
      "inputs": [
        {
          "indexed": true,
          "internalType": "address",
          "name": "previousOwner",
          "type": "address"
        },
        {
          "indexed": true,
          "internalType": "address",
          "name": "newOwner",
          "type": "address"
        }
      ],
      "name": "OwnershipTransferred",
      "type": "event"
    },
    {
      "anonymous": false,
      "inputs": [
        {
          "indexed": true,
          "internalType": "address",
          "name": "owner",
          "type": "address"
        },
        {
          "indexed": true,
          "internalType": "uint256",
          "name": "index",
          "type": "uint256"
        },
        {
          "components": [
            {
              "internalType": "uint256",
              "name": "index",
              "type": "uint256"
            },
            {
              "internalType": "string",
              "name": "title",
              "type": "string"
            },
            {
              "internalType": "string",
              "name": "desc",
              "type": "string"
            },
            {
              "internalType": "string",
              "name": "target",
              "type": "string"
            },
            {
              "internalType": "uint256",
              "name": "limitTime",
              "type": "uint256"
            },
            {
              "internalType": "uint256",
              "name": "startTime",
              "type": "uint256"
            },
            {
              "internalType": "uint256",
              "name": "bounty",
              "type": "uint256"
            },
            {
              "internalType": "enum TaskManager.Status",
              "name": "status",
              "type": "uint8"
            },
            {
              "internalType": "address",
              "name": "owner",
              "type": "address"
            },
            {
              "internalType": "address",
              "name": "executor",
              "type": "address"
            },
            {
              "internalType": "bool",
              "name": "finish",
              "type": "bool"
            }
          ],
          "indexed": false,
          "internalType": "struct TaskManager.Task",
          "name": "task",
          "type": "tuple"
        }
      ],
      "name": "PublishTask",
      "type": "event"
    },
    {
      "inputs": [
        {
          "internalType": "uint256",
          "name": "index",
          "type": "uint256"
        },
        {
          "internalType": "bool",
          "name": "finish",
          "type": "bool"
        }
      ],
      "name": "acceptanceTask",
      "outputs": [],
      "stateMutability": "nonpayable",
      "type": "function"
    },
    {
      "inputs": [
        {
          "internalType": "uint256",
          "name": "index",
          "type": "uint256"
        }
      ],
      "name": "closeTask",
      "outputs": [],
      "stateMutability": "nonpayable",
      "type": "function"
    },
    {
      "inputs": [],
      "name": "currentIndex",
      "outputs": [
        {
          "internalType": "uint256",
          "name": "",
          "type": "uint256"
        }
      ],
      "stateMutability": "view",
      "type": "function"
    },
    {
      "inputs": [
        {
          "internalType": "uint256",
          "name": "index",
          "type": "uint256"
        }
      ],
      "name": "finishTask",
      "outputs": [],
      "stateMutability": "nonpayable",
      "type": "function"
    },
    {
      "inputs": [
        {
          "internalType": "uint256",
          "name": "index",
          "type": "uint256"
        }
      ],
      "name": "overTake",
      "outputs": [],
      "stateMutability": "nonpayable",
      "type": "function"
    },
    {
      "inputs": [],
      "name": "owner",
      "outputs": [
        {
          "internalType": "address",
          "name": "",
          "type": "address"
        }
      ],
      "stateMutability": "view",
      "type": "function"
    },
    {
      "inputs": [
        {
          "internalType": "string",
          "name": "desc",
          "type": "string"
        },
        {
          "internalType": "string",
          "name": "title",
          "type": "string"
        },
        {
          "internalType": "string",
          "name": "target",
          "type": "string"
        },
        {
          "internalType": "uint256",
          "name": "limitTime",
          "type": "uint256"
        },
        {
          "internalType": "uint256",
          "name": "bounty",
          "type": "uint256"
        }
      ],
      "name": "publishTask",
      "outputs": [],
      "stateMutability": "nonpayable",
      "type": "function"
    },
    {
      "inputs": [],
      "name": "renounceOwnership",
      "outputs": [],
      "stateMutability": "nonpayable",
      "type": "function"
    },
    {
      "inputs": [
        {
          "internalType": "uint256",
          "name": "",
          "type": "uint256"
        }
      ],
      "name": "tasks",
      "outputs": [
        {
          "internalType": "uint256",
          "name": "index",
          "type": "uint256"
        },
        {
          "internalType": "string",
          "name": "title",
          "type": "string"
        },
        {
          "internalType": "string",
          "name": "desc",
          "type": "string"
        },
        {
          "internalType": "string",
          "name": "target",
          "type": "string"
        },
        {
          "internalType": "uint256",
          "name": "limitTime",
          "type": "uint256"
        },
        {
          "internalType": "uint256",
          "name": "startTime",
          "type": "uint256"
        },
        {
          "internalType": "uint256",
          "name": "bounty",
          "type": "uint256"
        },
        {
          "internalType": "enum TaskManager.Status",
          "name": "status",
          "type": "uint8"
        },
        {
          "internalType": "address",
          "name": "owner",
          "type": "address"
        },
        {
          "internalType": "address",
          "name": "executor",
          "type": "address"
        },
        {
          "internalType": "bool",
          "name": "finish",
          "type": "bool"
        }
      ],
      "stateMutability": "view",
      "type": "function"
    },
    {
      "inputs": [
        {
          "internalType": "address",
          "name": "newOwner",
          "type": "address"
        }
      ],
      "name": "transferOwnership",
      "outputs": [],
      "stateMutability": "nonpayable",
      "type": "function"
    }
  ],
  "bytecode": "0x608060405234801561001057600080fd5b50604051611ef9380380611ef98339818101604052810190610032919061022b565b33600073ffffffffffffffffffffffffffffffffffffffff168173ffffffffffffffffffffffffffffffffffffffff16036100a55760006040517f1e4fbdf700000000000000000000000000000000000000000000000000000000815260040161009c9190610267565b60405180910390fd5b6100b48161010460201b60201c565b5080600160006101000a81548173ffffffffffffffffffffffffffffffffffffffff021916908373ffffffffffffffffffffffffffffffffffffffff160217905550600060028190555050610282565b60008060009054906101000a900473ffffffffffffffffffffffffffffffffffffffff169050816000806101000a81548173ffffffffffffffffffffffffffffffffffffffff021916908373ffffffffffffffffffffffffffffffffffffffff1602179055508173ffffffffffffffffffffffffffffffffffffffff168173ffffffffffffffffffffffffffffffffffffffff167f8be0079c531659141344cd1fd0a4f28419497f9722a3daafe3b4186f6b6457e060405160405180910390a35050565b600080fd5b600073ffffffffffffffffffffffffffffffffffffffff82169050919050565b60006101f8826101cd565b9050919050565b610208816101ed565b811461021357600080fd5b50565b600081519050610225816101ff565b92915050565b600060208284031215610241576102406101c8565b5b600061024f84828501610216565b91505092915050565b610261816101ed565b82525050565b600060208201905061027c6000830184610258565b92915050565b611c68806102916000396000f3fe608060405234801561001057600080fd5b506004361061009e5760003560e01c80638d977672116100665780638d9776721461011f5780638da5cb5b14610159578063ae619a7614610177578063c812dbe814610193578063f2fde38b146101af5761009e565b80631201dfc6146100a357806326987b60146100bf5780635719b2e6146100dd578063715018a6146100f9578063842178b214610103575b600080fd5b6100bd60048036038101906100b8919061109f565b6101cb565b005b6100c76102a9565b6040516100d491906110db565b60405180910390f35b6100f760048036038101906100f2919061123c565b6102af565b005b610101610749565b005b61011d6004803603810190610118919061109f565b61075d565b005b6101396004803603810190610134919061109f565b6108ad565b6040516101509b9a9998979695949392919061145d565b60405180910390f35b610161610af9565b60405161016e919061151d565b60405180910390f35b610191600480360381019061018c919061109f565b610b22565b005b6101ad60048036038101906101a89190611564565b610bd4565b005b6101c960048036038101906101c491906115d0565b610e7c565b005b803373ffffffffffffffffffffffffffffffffffffffff166003600083815260200190815260200160002060070160019054906101000a900473ffffffffffffffffffffffffffffffffffffffff1673ffffffffffffffffffffffffffffffffffffffff1614610267576040517f86fcaefb00000000000000000000000000000000000000000000000000000000815260040160405180910390fd5b600380600084815260200190815260200160002060070160006101000a81548160ff021916908360038111156102a05761029f61138a565b5b02179055505050565b60025481565b80600160009054906101000a900473ffffffffffffffffffffffffffffffffffffffff1673ffffffffffffffffffffffffffffffffffffffff166370a08231336040518263ffffffff1660e01b815260040161030b919061151d565b602060405180830381865afa158015610328573d6000803e3d6000fd5b505050506040513d601f19601f8201168201806040525081019061034c9190611612565b10806103f4575080600160009054906101000a900473ffffffffffffffffffffffffffffffffffffffff1673ffffffffffffffffffffffffffffffffffffffff1663dd62ed3e33306040518363ffffffff1660e01b81526004016103b192919061163f565b602060405180830381865afa1580156103ce573d6000803e3d6000fd5b505050506040513d601f19601f820116820180604052508101906103f29190611612565b105b1561042b576040517fd4cf24f600000000000000000000000000000000000000000000000000000000815260040160405180910390fd5b600160009054906101000a900473ffffffffffffffffffffffffffffffffffffffff1673ffffffffffffffffffffffffffffffffffffffff166323b872dd3330846040518463ffffffff1660e01b815260040161048a93929190611668565b6020604051808303816000875af11580156104a9573d6000803e3d6000fd5b505050506040513d601f19601f820116820180604052508101906104cd91906116b4565b506000604051806101600160405280600254815260200186815260200187815260200185815260200162015180856105059190611710565b8152602001600081526020018381526020016000600381111561052b5761052a61138a565b5b81526020013373ffffffffffffffffffffffffffffffffffffffff168152602001600073ffffffffffffffffffffffffffffffffffffffff168152602001600015158152509050806003600060025481526020019081526020016000206000820151816000015560208201518160010190816105a7919061195e565b5060408201518160020190816105bd919061195e565b5060608201518160030190816105d3919061195e565b506080820151816004015560a0820151816005015560c0820151816006015560e08201518160070160006101000a81548160ff0219169083600381111561061d5761061c61138a565b5b02179055506101008201518160070160016101000a81548173ffffffffffffffffffffffffffffffffffffffff021916908373ffffffffffffffffffffffffffffffffffffffff1602179055506101208201518160080160006101000a81548173ffffffffffffffffffffffffffffffffffffffff021916908373ffffffffffffffffffffffffffffffffffffffff1602179055506101408201518160080160146101000a81548160ff0219169083151502179055509050506002543373ffffffffffffffffffffffffffffffffffffffff167ff8899d6798644af079df854b3043640fac508787e9eb235f2c56346922b67dbb8360405161071f9190611bb3565b60405180910390a360016002600082825461073a9190611bd5565b92505081905550505050505050565b610751610f02565b61075b6000610f89565b565b8042600360008381526020019081526020016000206004015460036000848152602001908152602001600020600501546107979190611bd5565b10156107cf576040517f2e50b13d00000000000000000000000000000000000000000000000000000000815260040160405180910390fd5b3373ffffffffffffffffffffffffffffffffffffffff166003600084815260200190815260200160002060080160009054906101000a900473ffffffffffffffffffffffffffffffffffffffff1673ffffffffffffffffffffffffffffffffffffffff161461086a576040517f92b001b600000000000000000000000000000000000000000000000000000000815260040160405180910390fd5b60026003600084815260200190815260200160002060070160006101000a81548160ff021916908360038111156108a4576108a361138a565b5b02179055505050565b60036020528060005260406000206000915090508060000154908060010180546108d690611781565b80601f016020809104026020016040519081016040528092919081815260200182805461090290611781565b801561094f5780601f106109245761010080835404028352916020019161094f565b820191906000526020600020905b81548152906001019060200180831161093257829003601f168201915b50505050509080600201805461096490611781565b80601f016020809104026020016040519081016040528092919081815260200182805461099090611781565b80156109dd5780601f106109b2576101008083540402835291602001916109dd565b820191906000526020600020905b8154815290600101906020018083116109c057829003601f168201915b5050505050908060030180546109f290611781565b80601f0160208091040260200160405190810160405280929190818152602001828054610a1e90611781565b8015610a6b5780601f10610a4057610100808354040283529160200191610a6b565b820191906000526020600020905b815481529060010190602001808311610a4e57829003601f168201915b5050505050908060040154908060050154908060060154908060070160009054906101000a900460ff16908060070160019054906101000a900473ffffffffffffffffffffffffffffffffffffffff16908060080160009054906101000a900473ffffffffffffffffffffffffffffffffffffffff16908060080160149054906101000a900460ff1690508b565b60008060009054906101000a900473ffffffffffffffffffffffffffffffffffffffff16905090565b336003600083815260200190815260200160002060080160006101000a81548173ffffffffffffffffffffffffffffffffffffffff021916908373ffffffffffffffffffffffffffffffffffffffff16021790555042600360008381526020019081526020016000206005018190555060016003600083815260200190815260200160002060070160006101000a81548160ff02191690836003811115610bcc57610bcb61138a565b5b021790555050565b813373ffffffffffffffffffffffffffffffffffffffff166003600083815260200190815260200160002060070160019054906101000a900473ffffffffffffffffffffffffffffffffffffffff1673ffffffffffffffffffffffffffffffffffffffff1614610c70576040517f86fcaefb00000000000000000000000000000000000000000000000000000000815260040160405180910390fd5b8115610e7757600160009054906101000a900473ffffffffffffffffffffffffffffffffffffffff1673ffffffffffffffffffffffffffffffffffffffff1663a9059cbb6003600086815260200190815260200160002060080160009054906101000a900473ffffffffffffffffffffffffffffffffffffffff1660036000878152602001908152602001600020600601546040518363ffffffff1660e01b8152600401610d1f929190611c09565b6020604051808303816000875af1158015610d3e573d6000803e3d6000fd5b505050506040513d601f19601f82011682018060405250810190610d6291906116b4565b50816003600085815260200190815260200160002060080160146101000a81548160ff021916908315150217905550600380600085815260200190815260200160002060070160006101000a81548160ff02191690836003811115610dca57610dc961138a565b5b021790555060036000848152602001908152602001600020600001546003600085815260200190815260200160002060080160009054906101000a900473ffffffffffffffffffffffffffffffffffffffff1673ffffffffffffffffffffffffffffffffffffffff163373ffffffffffffffffffffffffffffffffffffffff167f2ee2ab9a030ec92c48c9d124cda8fffc13cc9158c0aa374e8007fbba7e20142060405160405180910390a45b505050565b610e84610f02565b600073ffffffffffffffffffffffffffffffffffffffff168173ffffffffffffffffffffffffffffffffffffffff1603610ef65760006040517f1e4fbdf7000000000000000000000000000000000000000000000000000000008152600401610eed919061151d565b60405180910390fd5b610eff81610f89565b50565b610f0a61104d565b73ffffffffffffffffffffffffffffffffffffffff16610f28610af9565b73ffffffffffffffffffffffffffffffffffffffff1614610f8757610f4b61104d565b6040517f118cdaa7000000000000000000000000000000000000000000000000000000008152600401610f7e919061151d565b60405180910390fd5b565b60008060009054906101000a900473ffffffffffffffffffffffffffffffffffffffff169050816000806101000a81548173ffffffffffffffffffffffffffffffffffffffff021916908373ffffffffffffffffffffffffffffffffffffffff1602179055508173ffffffffffffffffffffffffffffffffffffffff168173ffffffffffffffffffffffffffffffffffffffff167f8be0079c531659141344cd1fd0a4f28419497f9722a3daafe3b4186f6b6457e060405160405180910390a35050565b600033905090565b6000604051905090565b600080fd5b600080fd5b6000819050919050565b61107c81611069565b811461108757600080fd5b50565b60008135905061109981611073565b92915050565b6000602082840312156110b5576110b461105f565b5b60006110c38482850161108a565b91505092915050565b6110d581611069565b82525050565b60006020820190506110f060008301846110cc565b92915050565b600080fd5b600080fd5b6000601f19601f8301169050919050565b7f4e487b7100000000000000000000000000000000000000000000000000000000600052604160045260246000fd5b61114982611100565b810181811067ffffffffffffffff8211171561116857611167611111565b5b80604052505050565b600061117b611055565b90506111878282611140565b919050565b600067ffffffffffffffff8211156111a7576111a6611111565b5b6111b082611100565b9050602081019050919050565b82818337600083830152505050565b60006111df6111da8461118c565b611171565b9050828152602081018484840111156111fb576111fa6110fb565b5b6112068482856111bd565b509392505050565b600082601f830112611223576112226110f6565b5b81356112338482602086016111cc565b91505092915050565b600080600080600060a086880312156112585761125761105f565b5b600086013567ffffffffffffffff81111561127657611275611064565b5b6112828882890161120e565b955050602086013567ffffffffffffffff8111156112a3576112a2611064565b5b6112af8882890161120e565b945050604086013567ffffffffffffffff8111156112d0576112cf611064565b5b6112dc8882890161120e565b93505060606112ed8882890161108a565b92505060806112fe8882890161108a565b9150509295509295909350565b600081519050919050565b600082825260208201905092915050565b60005b8381101561134557808201518184015260208101905061132a565b60008484015250505050565b600061135c8261130b565b6113668185611316565b9350611376818560208601611327565b61137f81611100565b840191505092915050565b7f4e487b7100000000000000000000000000000000000000000000000000000000600052602160045260246000fd5b600481106113ca576113c961138a565b5b50565b60008190506113db826113b9565b919050565b60006113eb826113cd565b9050919050565b6113fb816113e0565b82525050565b600073ffffffffffffffffffffffffffffffffffffffff82169050919050565b600061142c82611401565b9050919050565b61143c81611421565b82525050565b60008115159050919050565b61145781611442565b82525050565b600061016082019050611473600083018e6110cc565b8181036020830152611485818d611351565b90508181036040830152611499818c611351565b905081810360608301526114ad818b611351565b90506114bc608083018a6110cc565b6114c960a08301896110cc565b6114d660c08301886110cc565b6114e360e08301876113f2565b6114f1610100830186611433565b6114ff610120830185611433565b61150d61014083018461144e565b9c9b505050505050505050505050565b60006020820190506115326000830184611433565b92915050565b61154181611442565b811461154c57600080fd5b50565b60008135905061155e81611538565b92915050565b6000806040838503121561157b5761157a61105f565b5b60006115898582860161108a565b925050602061159a8582860161154f565b9150509250929050565b6115ad81611421565b81146115b857600080fd5b50565b6000813590506115ca816115a4565b92915050565b6000602082840312156115e6576115e561105f565b5b60006115f4848285016115bb565b91505092915050565b60008151905061160c81611073565b92915050565b6000602082840312156116285761162761105f565b5b6000611636848285016115fd565b91505092915050565b60006040820190506116546000830185611433565b6116616020830184611433565b9392505050565b600060608201905061167d6000830186611433565b61168a6020830185611433565b61169760408301846110cc565b949350505050565b6000815190506116ae81611538565b92915050565b6000602082840312156116ca576116c961105f565b5b60006116d88482850161169f565b91505092915050565b7f4e487b7100000000000000000000000000000000000000000000000000000000600052601160045260246000fd5b600061171b82611069565b915061172683611069565b925082820261173481611069565b9150828204841483151761174b5761174a6116e1565b5b5092915050565b7f4e487b7100000000000000000000000000000000000000000000000000000000600052602260045260246000fd5b6000600282049050600182168061179957607f821691505b6020821081036117ac576117ab611752565b5b50919050565b60008190508160005260206000209050919050565b60006020601f8301049050919050565b600082821b905092915050565b6000600883026118147fffffffffffffffffffffffffffffffffffffffffffffffffffffffffffffffff826117d7565b61181e86836117d7565b95508019841693508086168417925050509392505050565b6000819050919050565b600061185b61185661185184611069565b611836565b611069565b9050919050565b6000819050919050565b61187583611840565b61188961188182611862565b8484546117e4565b825550505050565b600090565b61189e611891565b6118a981848461186c565b505050565b5b818110156118cd576118c2600082611896565b6001810190506118af565b5050565b601f821115611912576118e3816117b2565b6118ec846117c7565b810160208510156118fb578190505b61190f611907856117c7565b8301826118ae565b50505b505050565b600082821c905092915050565b600061193560001984600802611917565b1980831691505092915050565b600061194e8383611924565b9150826002028217905092915050565b6119678261130b565b67ffffffffffffffff8111156119805761197f611111565b5b61198a8254611781565b6119958282856118d1565b600060209050601f8311600181146119c857600084156119b6578287015190505b6119c08582611942565b865550611a28565b601f1984166119d6866117b2565b60005b828110156119fe578489015182556001820191506020850194506020810190506119d9565b86831015611a1b5784890151611a17601f891682611924565b8355505b6001600288020188555050505b505050505050565b611a3981611069565b82525050565b600082825260208201905092915050565b6000611a5b8261130b565b611a658185611a3f565b9350611a75818560208601611327565b611a7e81611100565b840191505092915050565b611a92816113e0565b82525050565b611aa181611421565b82525050565b611ab081611442565b82525050565b600061016083016000830151611acf6000860182611a30565b5060208301518482036020860152611ae78282611a50565b91505060408301518482036040860152611b018282611a50565b91505060608301518482036060860152611b1b8282611a50565b9150506080830151611b306080860182611a30565b5060a0830151611b4360a0860182611a30565b5060c0830151611b5660c0860182611a30565b5060e0830151611b6960e0860182611a89565b50610100830151611b7e610100860182611a98565b50610120830151611b93610120860182611a98565b50610140830151611ba8610140860182611aa7565b508091505092915050565b60006020820190508181036000830152611bcd8184611ab6565b905092915050565b6000611be082611069565b9150611beb83611069565b9250828201905080821115611c0357611c026116e1565b5b92915050565b6000604082019050611c1e6000830185611433565b611c2b60208301846110cc565b939250505056fea2646970667358221220e40ba0d9ad6ab7238a940531206e227f6a631131cd5b4a1bcd4441f6a870d09964736f6c634300081c0033",
  "linkReferences": {},
  "deployedLinkReferences": {}
}