{
  "_format": "hh-sol-artifact-1",
  "contractName": "SimpleContract",
  "sourceName": "contracts/GeneratedContract.sol",
  "abi": [
    {
      "inputs": [],
      "stateMutability": "nonpayable",
      "type": "constructor"
    },
    {
      "inputs": [],
      "name": "getOwner",
      "outputs": [
        {
          "internalType": "address",
          "name": "",
          "type": "address"
        }
      ],
      "stateMutability": "view",
      "type": "function"
    },
    {
      "inputs": [],
      "name": "owner",
      "outputs": [
        {
          "internalType": "address",
          "name": "",
          "type": "address"
        }
      ],
      "stateMutability": "view",
      "type": "function"
    },
    {
      "inputs": [
        {
          "internalType": "address",
          "name": "newOwner",
          "type": "address"
        }
      ],
      "name": "setOwner",
      "outputs": [],
      "stateMutability": "nonpayable",
      "type": "function"
    }
  ],
  "bytecode": "0x6080604052348015600f57600080fd5b50600080546001600160a01b0319163317905561018b806100316000396000f3fe608060405234801561001057600080fd5b50600436106100415760003560e01c806313af403514610046578063893d20e81461005b5780638da5cb5b14610084575b600080fd5b610059610054366004610125565b610097565b005b6000546001600160a01b03165b6040516001600160a01b03909116815260200160405180910390f35b600054610068906001600160a01b031681565b6000546001600160a01b031633146101035760405162461bcd60e51b815260206004820152602560248201527f4f6e6c7920746865206f776e65722063616e2063616c6c20746869732066756e60448201526431ba34b7b760d91b606482015260840160405180910390fd5b600080546001600160a01b0319166001600160a01b0392909216919091179055565b60006020828403121561013757600080fd5b81356001600160a01b038116811461014e57600080fd5b939250505056fea2646970667358221220812e01b64254dcae4365d7478307030326fc4e5a392d0e425942021dfef442af64736f6c634300081c0033",
  "linkReferences": {},
  "deployedLinkReferences": {}
}