{
  "_format": "hh-sol-artifact-1",
  "contractName": "TestPayment",
  "sourceName": "contracts/TestPayment.sol",
  "abi": [
    {
      "inputs": [
        {
          "internalType": "address",
          "name": "_omsi",
          "type": "address"
        },
        {
          "internalType": "address",
          "name": "_suryansh",
          "type": "address"
        }
      ],
      "stateMutability": "nonpayable",
      "type": "constructor"
    },
    {
      "anonymous": false,
      "inputs": [
        {
          "indexed": false,
          "internalType": "address",
          "name": "to",
          "type": "address"
        },
        {
          "indexed": false,
          "internalType": "uint256",
          "name": "amount",
          "type": "uint256"
        }
      ],
      "name": "PaymentReleased",
      "type": "event"
    },
    {
      "inputs": [],
      "name": "omsi",
      "outputs": [
        {
          "internalType": "address",
          "name": "",
          "type": "address"
        }
      ],
      "stateMutability": "view",
      "type": "function"
    },
    {
      "inputs": [],
      "name": "paymentAmount",
      "outputs": [
        {
          "internalType": "uint256",
          "name": "",
          "type": "uint256"
        }
      ],
      "stateMutability": "view",
      "type": "function"
    },
    {
      "inputs": [],
      "name": "releasePayment",
      "outputs": [],
      "stateMutability": "nonpayable",
      "type": "function"
    },
    {
      "inputs": [],
      "name": "suryansh",
      "outputs": [
        {
          "internalType": "address",
          "name": "",
          "type": "address"
        }
      ],
      "stateMutability": "view",
      "type": "function"
    }
  ],
  "bytecode": "0x6080604052671bc16d674ec80000600055348015601b57600080fd5b506040516102903803806102908339810160408190526038916083565b600180546001600160a01b039384166001600160a01b0319918216179091556002805492909316911617905560b1565b80516001600160a01b0381168114607e57600080fd5b919050565b60008060408385031215609557600080fd5b609c836068565b915060a8602084016068565b90509250929050565b6101d0806100c06000396000f3fe608060405234801561001057600080fd5b506004361061004c5760003560e01c806368c3259214610051578063730a3d2014610081578063c35905c614610094578063d116c8c4146100ab575b600080fd5b600254610064906001600160a01b031681565b6040516001600160a01b0390911681526020015b60405180910390f35b600154610064906001600160a01b031681565b61009d60005481565b604051908152602001610078565b6100b36100b5565b005b6001546001600160a01b031633146101135760405162461bcd60e51b815260206004820152601d60248201527f4f6e6c79206f6d73692063616e2072656c65617365207061796d656e74000000604482015260640160405180910390fd5b600254600080546040516001600160a01b039093169281156108fc0292818181858888f1935050505015801561014d573d6000803e3d6000fd5b50600254600054604080516001600160a01b03909316835260208301919091527fdf20fd1e76bc69d672e4814fafb2c449bba3a5369d8359adf9e05e6fde87b056910160405180910390a156fea264697066735822122053a4dcfa4ce219b3718becc3a37b8f1ea24ae87dcca1b1b5c66fc8631f1a7fe464736f6c634300081c0033",
  "linkReferences": {},
  "deployedLinkReferences": {}
}